{
  "address": "0x7F7F32D5C3aC31810c38500908827a01Ac954653",
  "abi": [
    {
      "inputs": [],
      "stateMutability": "nonpayable",
      "type": "constructor"
    },
    {
      "anonymous": false,
      "inputs": [
        {
          "indexed": true,
          "internalType": "address",
          "name": "operator",
          "type": "address"
        },
        {
          "indexed": true,
          "internalType": "address",
          "name": "token",
          "type": "address"
        },
        {
          "indexed": false,
          "internalType": "uint256",
          "name": "oldValue",
          "type": "uint256"
        },
        {
          "indexed": false,
          "internalType": "uint256",
          "name": "value",
          "type": "uint256"
        }
      ],
      "name": "CreationMultiplierChanged",
      "type": "event"
    },
    {
      "anonymous": false,
      "inputs": [
        {
          "indexed": true,
          "internalType": "address",
          "name": "operator",
          "type": "address"
        },
        {
          "indexed": false,
          "internalType": "uint256",
          "name": "oldValue",
          "type": "uint256"
        },
        {
          "indexed": false,
          "internalType": "uint256",
          "name": "value",
          "type": "uint256"
        }
      ],
      "name": "DefaultCreationMultiplierChanged",
      "type": "event"
    },
    {
      "anonymous": false,
      "inputs": [
        {
          "indexed": true,
          "internalType": "address",
          "name": "operator",
          "type": "address"
        },
        {
          "indexed": false,
          "internalType": "uint256",
          "name": "oldValue",
          "type": "uint256"
        },
        {
          "indexed": false,
          "internalType": "uint256",
          "name": "value",
          "type": "uint256"
        }
      ],
      "name": "DefaultFeeDivisorChanged",
      "type": "event"
    },
    {
      "anonymous": false,
      "inputs": [
        {
          "indexed": true,
          "internalType": "address",
          "name": "operator",
          "type": "address"
        },
        {
          "indexed": true,
          "internalType": "address",
          "name": "token",
          "type": "address"
        },
        {
          "indexed": false,
          "internalType": "uint256",
          "name": "oldValue",
          "type": "uint256"
        },
        {
          "indexed": false,
          "internalType": "uint256",
          "name": "value",
          "type": "uint256"
        }
      ],
      "name": "FeeDivisorChanged",
      "type": "event"
    },
    {
      "inputs": [
        {
          "internalType": "address",
          "name": "token",
          "type": "address"
        }
      ],
      "name": "creationMultiplier",
      "outputs": [
        {
          "internalType": "uint256",
          "name": "multiplier",
          "type": "uint256"
        }
      ],
      "stateMutability": "view",
      "type": "function"
    },
    {
      "inputs": [],
      "name": "defaultCreationMultiplier",
      "outputs": [
        {
          "internalType": "uint256",
          "name": "multiplier",
          "type": "uint256"
        }
      ],
      "stateMutability": "view",
      "type": "function"
    },
    {
      "inputs": [],
      "name": "defaultFeeDivisor",
      "outputs": [
        {
          "internalType": "uint256",
          "name": "multiplier",
          "type": "uint256"
        }
      ],
      "stateMutability": "view",
      "type": "function"
    },
    {
      "inputs": [
        {
          "internalType": "address",
          "name": "token",
          "type": "address"
        }
      ],
      "name": "feeDivisor",
      "outputs": [
        {
          "internalType": "uint256",
          "name": "divisor",
          "type": "uint256"
        }
      ],
      "stateMutability": "view",
      "type": "function"
    },
    {
      "inputs": [
        {
          "internalType": "address",
          "name": "token",
          "type": "address"
        },
        {
          "internalType": "uint256",
          "name": "_multiplier",
          "type": "uint256"
        }
      ],
      "name": "setCreationMultiplier",
      "outputs": [
        {
          "internalType": "uint256",
          "name": "oldMultiplier",
          "type": "uint256"
        }
      ],
      "stateMutability": "nonpayable",
      "type": "function"
    },
    {
      "inputs": [
        {
          "internalType": "uint256",
          "name": "_multiplier",
          "type": "uint256"
        }
      ],
      "name": "setDefaultCreationMultiplier",
      "outputs": [
        {
          "internalType": "uint256",
          "name": "oldMultiplier",
          "type": "uint256"
        }
      ],
      "stateMutability": "nonpayable",
      "type": "function"
    },
    {
      "inputs": [
        {
          "internalType": "uint256",
          "name": "_feeDivisor",
          "type": "uint256"
        }
      ],
      "name": "setDefaultFeeDivisor",
      "outputs": [
        {
          "internalType": "uint256",
          "name": "oldDivisor",
          "type": "uint256"
        }
      ],
      "stateMutability": "nonpayable",
      "type": "function"
    },
    {
      "inputs": [
        {
          "internalType": "address",
          "name": "token",
          "type": "address"
        },
        {
          "internalType": "uint256",
          "name": "_feeDivisor",
          "type": "uint256"
        }
      ],
      "name": "setFeeDivisor",
      "outputs": [
        {
          "internalType": "uint256",
          "name": "oldDivisor",
          "type": "uint256"
        }
      ],
      "stateMutability": "nonpayable",
      "type": "function"
    },
    {
      "inputs": [
        {
          "internalType": "address",
          "name": "_operator",
          "type": "address"
        }
      ],
      "name": "setOperator",
      "outputs": [],
      "stateMutability": "nonpayable",
      "type": "function"
    }
  ],
  "transactionHash": "0x7a9c6d3732907b2bba4ea459fc0201dc7f2caae7fc30cd08a7d2caaffb6db54c",
  "args": [],
  "solcInputHash": "39ea6b62d3ccbb1d057e5219143250c2",
  "bytecode": "0x608060405234801561001057600080fd5b506105f3806100206000396000f3fe608060405234801561001057600080fd5b50600436106100835760003560e01c80630415c9f4146100885780631a7260bc146100b757806343a89328146100bf57806361e20da5146100eb578063a51834ff14610108578063b3ab15fb14610134578063c52111541461015c578063eee1ad8014610164578063f945c0691461018a575b600080fd5b6100a56004803603602081101561009e57600080fd5b50356101b0565b60408051918252519081900360200190f35b6100a561029a565b6100a5600480360360408110156100d557600080fd5b506001600160a01b0381351690602001356102a0565b6100a56004803603602081101561010157600080fd5b5035610350565b6100a56004803603604081101561011e57600080fd5b506001600160a01b0381351690602001356103f7565b61015a6004803603602081101561014a57600080fd5b50356001600160a01b03166104ef565b005b6100a561055b565b6100a56004803603602081101561017a57600080fd5b50356001600160a01b0316610561565b6100a5600480360360208110156101a057600080fd5b50356001600160a01b0316610590565b600080546001600160a01b031633146101ff576040805162461bcd60e51b815260206004820152600c60248201526b15539055551213d49256915160a21b604482015290519081900360640190fd5b81610242576040805162461bcd60e51b815260206004820152600e60248201526d4449564953494f4e42595a45524f60901b604482015290519081900360640190fd5b506002805490829055600054604080518381526020810185905281516001600160a01b03909316927f50d2fd3a15ffe0a5547c68d91dc96339c386f8a7d180a1f8cb782d39cfed38af929181900390910190a2919050565b60015490565b600080546001600160a01b031633146102ef576040805162461bcd60e51b815260206004820152600c60248201526b15539055551213d49256915160a21b604482015290519081900360640190fd5b506001600160a01b03808316600081815260036020908152604080832054925481518481529283018790528151939516927f25807f8ef1a6f2f224473eaeaf9b00e940f4d4855c13bad7d1297e7303e8840b9281900390910190a392915050565b600080546001600160a01b0316331461039f576040805162461bcd60e51b815260206004820152600c60248201526b15539055551213d49256915160a21b604482015290519081900360640190fd5b506001805490829055600054604080518381526020810185905281516001600160a01b03909316927fa16dd47ba745896022e7a28bbfee347b83174387f5e3443e1f474eda0feb1892929181900390910190a2919050565b600080546001600160a01b03163314610446576040805162461bcd60e51b815260206004820152600c60248201526b15539055551213d49256915160a21b604482015290519081900360640190fd5b81610489576040805162461bcd60e51b815260206004820152600e60248201526d4449564953494f4e42595a45524f60901b604482015290519081900360640190fd5b506001600160a01b038083166000818152600460209081526040808320805490879055925481518481529283018790528151939516927f8f604bc5c2d1916032a90c8f4d7cdc0dff78f1ba11119344f3fe46ddea1795449281900390910190a392915050565b6000546001600160a01b031615610539576040805162461bcd60e51b8152602060048201526009602482015268494d4d555441424c4560b81b604482015290519081900360640190fd5b600080546001600160a01b0319166001600160a01b0392909216919091179055565b60025490565b6001600160a01b0381166000908152600460205260409020548015610586578061058a565b6103e85b92915050565b6001600160a01b03811660009081526003602052604090205480156105b5578061058a565b60329291505056fea26469706673582212204fadc245d918d9c55109932fae920c800571a1cfad1cb49256badf12535d23bf64736f6c63430007030033",
  "devdoc": {
    "kind": "dev",
    "methods": {
      "constructor": {
        "details": "construct"
      },
      "creationMultiplier(address)": {
        "details": "Get the fee divisor for the specified token"
      },
      "defaultCreationMultiplier()": {
        "details": "Get the fee divisor for the specified token"
      },
      "defaultFeeDivisor()": {
        "details": "Get the fee divisor for the specified token"
      },
      "feeDivisor(address)": {
        "details": "Get the fee divisor for the specified token"
      },
      "setCreationMultiplier(address,uint256)": {
        "details": "Set the fee divisor for the specified token"
      },
      "setDefaultCreationMultiplier(uint256)": {
        "details": "Set the fee divisor for the specified token"
      },
      "setDefaultFeeDivisor(uint256)": {
        "details": "Set the fee divisor for the specified token"
      },
      "setFeeDivisor(address,uint256)": {
        "details": "Set the fee divisor for the specified token"
      },
      "setOperator(address)": {
        "details": "Set the address allowed to mint and burn"
      }
    },
    "version": 1
  },
  "userdoc": {
    "kind": "user",
    "methods": {},
    "version": 1
  },
  "storageLayout": {
    "storage": [
      {
        "astId": 14545,
        "contract": "src/utils/QuantizedFeeTracker.sol:QuantizedFeeTracker",
        "label": "operator",
        "offset": 0,
        "slot": "0",
        "type": "t_address"
      },
      {
        "astId": 14553,
        "contract": "src/utils/QuantizedFeeTracker.sol:QuantizedFeeTracker",
        "label": "_defaultCreationMultiplier",
        "offset": 0,
        "slot": "1",
        "type": "t_uint256"
      },
      {
        "astId": 14555,
        "contract": "src/utils/QuantizedFeeTracker.sol:QuantizedFeeTracker",
        "label": "_defaultFeeDivisor",
        "offset": 0,
        "slot": "2",
        "type": "t_uint256"
      },
      {
        "astId": 14559,
        "contract": "src/utils/QuantizedFeeTracker.sol:QuantizedFeeTracker",
        "label": "creationMultipliers",
        "offset": 0,
        "slot": "3",
        "type": "t_mapping(t_address,t_uint256)"
      },
      {
        "astId": 14563,
        "contract": "src/utils/QuantizedFeeTracker.sol:QuantizedFeeTracker",
        "label": "feeDivisors",
        "offset": 0,
        "slot": "4",
        "type": "t_mapping(t_address,t_uint256)"
      }
    ],
    "types": {
      "t_address": {
        "encoding": "inplace",
        "label": "address",
        "numberOfBytes": "20"
      },
      "t_mapping(t_address,t_uint256)": {
        "encoding": "mapping",
        "key": "t_address",
        "label": "mapping(address => uint256)",
        "numberOfBytes": "32",
        "value": "t_uint256"
      },
      "t_uint256": {
        "encoding": "inplace",
        "label": "uint256",
        "numberOfBytes": "32"
      }
    }
  }
}