{
  "address": "0xFafd44da5aA3fE156F400Dfb8Ca154E37C7951E2",
  "abi": [
    {
      "inputs": [],
      "stateMutability": "nonpayable",
      "type": "constructor"
    },
    {
      "anonymous": false,
      "inputs": [
        {
          "indexed": true,
          "internalType": "address",
          "name": "owner",
          "type": "address"
        },
        {
          "indexed": true,
          "internalType": "address",
          "name": "spender",
          "type": "address"
        },
        {
          "indexed": false,
          "internalType": "uint256",
          "name": "value",
          "type": "uint256"
        }
      ],
      "name": "Approval",
      "type": "event"
    },
    {
      "anonymous": false,
      "inputs": [
        {
          "indexed": true,
          "internalType": "address",
          "name": "owner",
          "type": "address"
        },
        {
          "indexed": true,
          "internalType": "address",
          "name": "spender",
          "type": "address"
        },
        {
          "indexed": false,
          "internalType": "uint256",
          "name": "value",
          "type": "uint256"
        }
      ],
      "name": "QuantizedApproval",
      "type": "event"
    },
    {
      "anonymous": false,
      "inputs": [
        {
          "indexed": true,
          "internalType": "address",
          "name": "from",
          "type": "address"
        },
        {
          "indexed": true,
          "internalType": "address",
          "name": "to",
          "type": "address"
        },
        {
          "indexed": false,
          "internalType": "uint256",
          "name": "value",
          "type": "uint256"
        }
      ],
      "name": "QuantizedTransfer",
      "type": "event"
    },
    {
      "anonymous": false,
      "inputs": [
        {
          "indexed": true,
          "internalType": "address",
          "name": "from",
          "type": "address"
        },
        {
          "indexed": true,
          "internalType": "address",
          "name": "to",
          "type": "address"
        },
        {
          "indexed": false,
          "internalType": "address[]",
          "name": "tokens",
          "type": "address[]"
        },
        {
          "indexed": false,
          "internalType": "uint256[]",
          "name": "values",
          "type": "uint256[]"
        }
      ],
      "name": "QuantizedTransferBatch",
      "type": "event"
    },
    {
      "anonymous": false,
      "inputs": [
        {
          "indexed": true,
          "internalType": "address",
          "name": "from",
          "type": "address"
        },
        {
          "indexed": false,
          "internalType": "address[]",
          "name": "to",
          "type": "address[]"
        },
        {
          "indexed": false,
          "internalType": "uint256[]",
          "name": "values",
          "type": "uint256[]"
        }
      ],
      "name": "QuantizedTransferMany",
      "type": "event"
    },
    {
      "anonymous": false,
      "inputs": [
        {
          "indexed": true,
          "internalType": "address",
          "name": "from",
          "type": "address"
        },
        {
          "indexed": true,
          "internalType": "address",
          "name": "to",
          "type": "address"
        },
        {
          "indexed": false,
          "internalType": "uint256",
          "name": "value",
          "type": "uint256"
        }
      ],
      "name": "Transfer",
      "type": "event"
    },
    {
      "inputs": [
        {
          "internalType": "address",
          "name": "owner",
          "type": "address"
        },
        {
          "internalType": "address",
          "name": "spender",
          "type": "address"
        }
      ],
      "name": "allowance",
      "outputs": [
        {
          "internalType": "uint256",
          "name": "",
          "type": "uint256"
        }
      ],
      "stateMutability": "view",
      "type": "function"
    },
    {
      "inputs": [
        {
          "internalType": "address",
          "name": "spender",
          "type": "address"
        },
        {
          "internalType": "uint256",
          "name": "value",
          "type": "uint256"
        }
      ],
      "name": "approve",
      "outputs": [
        {
          "internalType": "bool",
          "name": "",
          "type": "bool"
        }
      ],
      "stateMutability": "nonpayable",
      "type": "function"
    },
    {
      "inputs": [
        {
          "internalType": "address",
          "name": "owner",
          "type": "address"
        }
      ],
      "name": "balanceOf",
      "outputs": [
        {
          "internalType": "uint256",
          "name": "bal",
          "type": "uint256"
        }
      ],
      "stateMutability": "view",
      "type": "function"
    },
    {
      "inputs": [],
      "name": "decimals",
      "outputs": [
        {
          "internalType": "uint8",
          "name": "dec",
          "type": "uint8"
        }
      ],
      "stateMutability": "view",
      "type": "function"
    },
    {
      "inputs": [
        {
          "internalType": "address",
          "name": "_quantized",
          "type": "address"
        },
        {
          "internalType": "address",
          "name": "_erc1155token",
          "type": "address"
        },
        {
          "internalType": "address",
          "name": "_erc20token",
          "type": "address"
        }
      ],
      "name": "initialize",
      "outputs": [],
      "stateMutability": "nonpayable",
      "type": "function"
    },
    {
      "inputs": [],
      "name": "name",
      "outputs": [
        {
          "internalType": "string",
          "name": "nam",
          "type": "string"
        }
      ],
      "stateMutability": "view",
      "type": "function"
    },
    {
      "inputs": [],
      "name": "quantizedSupply",
      "outputs": [
        {
          "internalType": "uint256",
          "name": "supply",
          "type": "uint256"
        }
      ],
      "stateMutability": "view",
      "type": "function"
    },
    {
      "inputs": [],
      "name": "symbol",
      "outputs": [
        {
          "internalType": "string",
          "name": "sym",
          "type": "string"
        }
      ],
      "stateMutability": "view",
      "type": "function"
    },
    {
      "inputs": [],
      "name": "totalSupply",
      "outputs": [
        {
          "internalType": "uint256",
          "name": "supply",
          "type": "uint256"
        }
      ],
      "stateMutability": "view",
      "type": "function"
    },
    {
      "inputs": [
        {
          "internalType": "address",
          "name": "to",
          "type": "address"
        },
        {
          "internalType": "uint256",
          "name": "value",
          "type": "uint256"
        }
      ],
      "name": "transfer",
      "outputs": [
        {
          "internalType": "bool",
          "name": "",
          "type": "bool"
        }
      ],
      "stateMutability": "nonpayable",
      "type": "function"
    },
    {
      "inputs": [
        {
          "internalType": "address",
          "name": "from",
          "type": "address"
        },
        {
          "internalType": "address",
          "name": "to",
          "type": "address"
        },
        {
          "internalType": "uint256[]",
          "name": "tokens",
          "type": "uint256[]"
        },
        {
          "internalType": "uint256[]",
          "name": "amounts",
          "type": "uint256[]"
        }
      ],
      "name": "transferBatch",
      "outputs": [],
      "stateMutability": "nonpayable",
      "type": "function"
    },
    {
      "inputs": [
        {
          "internalType": "address",
          "name": "from",
          "type": "address"
        },
        {
          "internalType": "address",
          "name": "to",
          "type": "address"
        },
        {
          "internalType": "uint256",
          "name": "value",
          "type": "uint256"
        }
      ],
      "name": "transferFrom",
      "outputs": [
        {
          "internalType": "bool",
          "name": "",
          "type": "bool"
        }
      ],
      "stateMutability": "nonpayable",
      "type": "function"
    },
    {
      "inputs": [
        {
          "internalType": "address",
          "name": "from",
          "type": "address"
        },
        {
          "internalType": "address[]",
          "name": "to",
          "type": "address[]"
        },
        {
          "internalType": "uint256[]",
          "name": "value",
          "type": "uint256[]"
        }
      ],
      "name": "transferMany",
      "outputs": [
        {
          "internalType": "bool",
          "name": "",
          "type": "bool"
        }
      ],
      "stateMutability": "nonpayable",
      "type": "function"
    }
  ],
  "transactionHash": "0x131d40134894405bd2894a2750c32e3905fb5f748ed7b01423071cc93ef5cc9e",
  "args": [],
  "solcInputHash": "4a315e7a68d6674ebad22aec413b6b18",
  "bytecode": "0x608060405234801561001057600080fd5b50610f5e806100206000396000f3fe608060405234801561001057600080fd5b50600436106100af5760003560e01c806306fdde03146100b45780630731a36914610131578063095ea7b31461026f57806318160ddd146102af5780631a9d4dc9146102c957806323b872dd146103fc578063313ce5671461043257806370a082311461045057806375991d421461047657806395d89b411461047e578063a9059cbb14610486578063c0c53b8b146104b2578063dd62ed3e146104ea575b600080fd5b6100bc610518565b6040805160208082528351818301528351919283929083019185019080838360005b838110156100f65781810151838201526020016100de565b50505050905090810190601f1680156101235780820380516001836020036101000a031916815260200191505b509250505060405180910390f35b61026d6004803603608081101561014757600080fd5b6001600160a01b038235811692602081013590911691810190606081016040820135600160201b81111561017a57600080fd5b82018360208201111561018c57600080fd5b803590602001918460208302840111600160201b831117156101ad57600080fd5b9190808060200260200160405190810160405280939291908181526020018383602002808284376000920191909152509295949360208101935035915050600160201b8111156101fc57600080fd5b82018360208201111561020e57600080fd5b803590602001918460208302840111600160201b8311171561022f57600080fd5b91908080602002602001604051908101604052809392919081815260200183836020028082843760009201919091525092955061064d945050505050565b005b61029b6004803603604081101561028557600080fd5b506001600160a01b0381351690602001356107c2565b604080519115158252519081900360200190f35b6102b7610845565b60408051918252519081900360200190f35b61029b600480360360608110156102df57600080fd5b6001600160a01b038235169190810190604081016020820135600160201b81111561030957600080fd5b82018360208201111561031b57600080fd5b803590602001918460208302840111600160201b8311171561033c57600080fd5b9190808060200260200160405190810160405280939291908181526020018383602002808284376000920191909152509295949360208101935035915050600160201b81111561038b57600080fd5b82018360208201111561039d57600080fd5b803590602001918460208302840111600160201b831117156103be57600080fd5b9190808060200260200160405190810160405280939291908181526020018383602002808284376000920191909152509295506108bb945050505050565b61029b6004803603606081101561041257600080fd5b506001600160a01b03813581169160208101359091169060400135610a25565b61043a610ab3565b6040805160ff9092168252519081900360200190f35b6102b76004803603602081101561046657600080fd5b50356001600160a01b0316610af8565b6102b7610b84565b6100bc610bd8565b61029b6004803603604081101561049c57600080fd5b506001600160a01b038135169060200135610c1d565b61026d600480360360608110156104c857600080fd5b506001600160a01b038135811691602081013582169160409091013516610c33565b6102b76004803603604081101561050057600080fd5b506001600160a01b0381358116916020013516610cc7565b600354604080516306fdde0360e01b815290516060926001600160a01b0316916306fdde03916004808301926000929190829003018186803b15801561055d57600080fd5b505afa158015610571573d6000803e3d6000fd5b505050506040513d6000823e601f3d908101601f19168201604052602081101561059a57600080fd5b8101908080516040519392919084600160201b8211156105b957600080fd5b9083019060208201858111156105ce57600080fd5b8251600160201b8111828201881017156105e757600080fd5b82525081516020918201929091019080838360005b838110156106145781810151838201526020016105fc565b50505050905090810190601f1680156106415780820380516001836020036101000a031916815260200191505b50604052505050905090565b6001600160a01b03831661069b576040805162461bcd60e51b815260206004820152601060248201526f2d22a927afa222a9aa24a720aa24a7a760811b604482015290519081900360640190fd5b600254604051631759616b60e11b81526001600160a01b0386811660048301908152868216602484015260a060448401908152865160a485015286519290941693632eb2c2d6938993899389938993919290916064810191608482019160c401906020808901910280838360005b83811015610721578181015183820152602001610709565b50505050905001848103835285818151815260200191508051906020019060200280838360005b83811015610760578181015183820152602001610748565b50505050905001848103825260038152602001806203078360ec1b815250602001975050505050505050600060405180830381600087803b1580156107a457600080fd5b505af11580156107b8573d6000803e3d6000fd5b5050505050505050565b60006107cf338484610cf0565b6002546040805163a22cb46560e01b81526001600160a01b038681166004830152600160248301529151919092169163a22cb46591604480830192600092919082900301818387803b15801561082457600080fd5b505af1158015610838573d6000803e3d6000fd5b5060019695505050505050565b600354604080516318160ddd60e01b815290516000926001600160a01b0316916318160ddd916004808301926020929190829003018186803b15801561088a57600080fd5b505afa15801561089e573d6000803e3d6000fd5b505050506040513d60208110156108b457600080fd5b5051919050565b600080835111610905576040805162461bcd60e51b815260206004820152601060248201526f2d22a927afa222a9aa24a720aa24a7a760811b604482015290519081900360640190fd5b81518351146109455760405162461bcd60e51b8152600401808060200182810382526021815260200180610f086021913960400191505060405180910390fd5b60005b8351811015610a1a576001600160a01b038516600090815260208181526040808320338452909152902054600019146109e1576109be83828151811061098a57fe5b6020908102919091018101516001600160a01b03881660009081528083526040808220338352909352919091205490610d50565b6001600160a01b0386166000908152602081815260408083203384529091529020555b610a12858583815181106109f157fe5b6020026020010151858481518110610a0557fe5b6020026020010151610dad565b600101610948565b506001949350505050565b6001600160a01b03831660009081526020818152604080832033845290915281205460001914610a9e576001600160a01b038416600090815260208181526040808320338452909152902054610a7b9083610d50565b6001600160a01b0385166000908152602081815260408083203384529091529020555b610aa9848484610dad565b5060019392505050565b6003546040805163313ce56760e01b815290516000926001600160a01b03169163313ce567916004808301926020929190829003018186803b15801561088a57600080fd5b60025460035460408051627eeac760e11b81526001600160a01b03858116600483015292831660248201529051600093929092169162fdd58e91604480820192602092909190829003018186803b158015610b5257600080fd5b505afa158015610b66573d6000803e3d6000fd5b505050506040513d6020811015610b7c57600080fd5b505192915050565b600354600154604080516370a0823160e01b81526001600160a01b039283166004820152905160009392909216916370a0823191602480820192602092909190829003018186803b15801561088a57600080fd5b600354604080516395d89b4160e01b815290516060926001600160a01b0316916395d89b41916004808301926000929190829003018186803b15801561055d57600080fd5b6000610c2a338484610dad565b50600192915050565b6001546001600160a01b031615610c88576040805162461bcd60e51b815260206004820152601460248201527328bab0b73a34bd32b21d102327a92124a22222a760611b604482015290519081900360640190fd5b600180546001600160a01b039485166001600160a01b031991821617909155600280549385169382169390931790925560038054919093169116179055565b6001600160a01b0391821660009081526020818152604080832093909416825291909152205490565b6001600160a01b0380841660008181526020818152604080832094871680845294825291829020859055815185815291517f8c5be1e5ebec7d5bd14f71427d1e84f3dd0314c0f7b2291e5b200ac8c7c3b9259281900390910190a3505050565b600082821115610da7576040805162461bcd60e51b815260206004820152601e60248201527f536166654d6174683a207375627472616374696f6e206f766572666c6f770000604482015290519081900360640190fd5b50900390565b6001600160a01b03831660009081526020818152604080832033845290915290205460001914610e26576001600160a01b038316600090815260208181526040808320338452909152902054610e039082610d50565b6001600160a01b0384166000908152602081815260408083203384529091529020555b6002546003805460408051637921219560e11b81526001600160a01b038881166004830152878116602483015292831660448201526064810186905260a0608482015260a48101939093526203078360ec1b60c48401525192169163f242432a9160e48082019260009290919082900301818387803b158015610ea857600080fd5b505af1158015610ebc573d6000803e3d6000fd5b50506040805184815290516001600160a01b038087169450871692507fddf252ad1be2c89b69c2b068fc378daa952ba7f163c4a11628f55a4df523b3ef9181900360200190a350505056fe746f20616e642076616c7565206c656e6774687320646f206e6f74206d61746368a2646970667358221220717c85de2556b3948aca7e1b7199777ddae34d314e5a9329a7fed9264c0a77c164736f6c63430007030033",
  "devdoc": {
    "kind": "dev",
    "methods": {
      "allowance(address,address)": {
        "details": "Returns the remaining number of tokens that `spender` will be allowed to spend on behalf of `owner` through {transferFrom}. This is zero by default. This value changes when {approve} or {transferFrom} are called."
      },
      "totalSupply()": {
        "details": "Returns the amount of tokens in existence."
      }
    },
    "version": 1
  },
  "userdoc": {
    "kind": "user",
    "methods": {},
    "version": 1
  },
  "storageLayout": {
    "storage": [
      {
        "astId": 13486,
        "contract": "src/tokens/QuantizedERC20.sol:QuantizedERC20",
        "label": "_allowance",
        "offset": 0,
        "slot": "0",
        "type": "t_mapping(t_address,t_mapping(t_address,t_uint256))"
      },
      {
        "astId": 13488,
        "contract": "src/tokens/QuantizedERC20.sol:QuantizedERC20",
        "label": "quantized",
        "offset": 0,
        "slot": "1",
        "type": "t_address"
      },
      {
        "astId": 13490,
        "contract": "src/tokens/QuantizedERC20.sol:QuantizedERC20",
        "label": "erc1155token",
        "offset": 0,
        "slot": "2",
        "type": "t_address"
      },
      {
        "astId": 13492,
        "contract": "src/tokens/QuantizedERC20.sol:QuantizedERC20",
        "label": "erc20token",
        "offset": 0,
        "slot": "3",
        "type": "t_address"
      }
    ],
    "types": {
      "t_address": {
        "encoding": "inplace",
        "label": "address",
        "numberOfBytes": "20"
      },
      "t_mapping(t_address,t_mapping(t_address,t_uint256))": {
        "encoding": "mapping",
        "key": "t_address",
        "label": "mapping(address => mapping(address => uint256))",
        "numberOfBytes": "32",
        "value": "t_mapping(t_address,t_uint256)"
      },
      "t_mapping(t_address,t_uint256)": {
        "encoding": "mapping",
        "key": "t_address",
        "label": "mapping(address => uint256)",
        "numberOfBytes": "32",
        "value": "t_uint256"
      },
      "t_uint256": {
        "encoding": "inplace",
        "label": "uint256",
        "numberOfBytes": "32"
      }
    }
  }
}