{
  "address": "0xF694c389323C6EB4a221F3f0C9480a2F771Fcf2c",
  "abi": [
    {
      "inputs": [],
      "name": "QUANTA_ETH_MULTIPLIER",
      "outputs": [
        {
          "internalType": "uint256",
          "name": "",
          "type": "uint256"
        }
      ],
      "stateMutability": "view",
      "type": "function"
    },
    {
      "inputs": [],
      "name": "UNISWAP_FACTORY_ADDRESS",
      "outputs": [
        {
          "internalType": "address",
          "name": "",
          "type": "address"
        }
      ],
      "stateMutability": "view",
      "type": "function"
    },
    {
      "inputs": [],
      "name": "UNISWAP_ROUTER_ADDRESS",
      "outputs": [
        {
          "internalType": "address",
          "name": "",
          "type": "address"
        }
      ],
      "stateMutability": "view",
      "type": "function"
    },
    {
      "inputs": [
        {
          "internalType": "address",
          "name": "token",
          "type": "address"
        },
        {
          "internalType": "uint256",
          "name": "tokenAmount",
          "type": "uint256"
        }
      ],
      "name": "ethQuote",
      "outputs": [
        {
          "internalType": "uint256",
          "name": "quanta",
          "type": "uint256"
        },
        {
          "internalType": "uint256",
          "name": "ReserveA",
          "type": "uint256"
        },
        {
          "internalType": "uint256",
          "name": "ReserveB",
          "type": "uint256"
        }
      ],
      "stateMutability": "view",
      "type": "function"
    },
    {
      "inputs": [
        {
          "internalType": "address",
          "name": "token",
          "type": "address"
        }
      ],
      "name": "getPathForETHToToken",
      "outputs": [
        {
          "internalType": "address[]",
          "name": "",
          "type": "address[]"
        }
      ],
      "stateMutability": "pure",
      "type": "function"
    },
    {
      "inputs": [
        {
          "internalType": "address",
          "name": "factory",
          "type": "address"
        },
        {
          "internalType": "address",
          "name": "tokenA",
          "type": "address"
        },
        {
          "internalType": "address",
          "name": "tokenB",
          "type": "address"
        }
      ],
      "name": "pairFor",
      "outputs": [
        {
          "internalType": "address",
          "name": "pair",
          "type": "address"
        }
      ],
      "stateMutability": "pure",
      "type": "function"
    },
    {
      "inputs": [
        {
          "internalType": "address",
          "name": "token",
          "type": "address"
        },
        {
          "internalType": "uint256",
          "name": "amount",
          "type": "uint256"
        },
        {
          "internalType": "uint256",
          "name": "feeDivisor",
          "type": "uint256"
        }
      ],
      "name": "quantaFee",
      "outputs": [
        {
          "internalType": "uint256",
          "name": "aFee",
          "type": "uint256"
        }
      ],
      "stateMutability": "view",
      "type": "function"
    },
    {
      "inputs": [
        {
          "internalType": "address",
          "name": "qfactory",
          "type": "address"
        },
        {
          "internalType": "address",
          "name": "token0",
          "type": "address"
        }
      ],
      "name": "quantizedAddressOf",
      "outputs": [
        {
          "internalType": "address",
          "name": "qaddress",
          "type": "address"
        }
      ],
      "stateMutability": "pure",
      "type": "function"
    },
    {
      "inputs": [
        {
          "internalType": "address",
          "name": "token",
          "type": "address"
        },
        {
          "internalType": "uint256",
          "name": "amount",
          "type": "uint256"
        }
      ],
      "name": "toQuanta",
      "outputs": [
        {
          "internalType": "uint256",
          "name": "quanta",
          "type": "uint256"
        }
      ],
      "stateMutability": "view",
      "type": "function"
    },
    {
      "inputs": [
        {
          "internalType": "address",
          "name": "token",
          "type": "address"
        }
      ],
      "name": "uniswapPoolExists",
      "outputs": [
        {
          "internalType": "bool",
          "name": "poolExists",
          "type": "bool"
        }
      ],
      "stateMutability": "view",
      "type": "function"
    }
  ],
  "transactionHash": "0xa6aae50529c1f360504b31100ec67ee9b3cf0179defa5c0dab514385e84f0219",
  "args": [],
  "solcInputHash": "39ea6b62d3ccbb1d057e5219143250c2",
  "bytecode": "0x610c63610026600b82828239805160001a60731461001957fe5b30600052607381538281f3fe73000000000000000000000000000000000000000030146080604052600436106100a35760003560e01c80631874f0a9146100a85780635d80940a146100f25780636d91c0e21461013657806379b369431461018a5780637dddfe9f146101925780637fa40ba1146102085780639bf710d414610210578063b73b51c614610218578063c1ee0a6314610244578063da76a13d1461027e578063fe4ad277146102c9575b600080fd5b6100d4600480360360408110156100be57600080fd5b506001600160a01b0381351690602001356102f7565b60408051938452602084019290925282820152519081900360600190f35b6101246004803603606081101561010857600080fd5b506001600160a01b0381351690602081013590604001356103b1565b60408051918252519081900360200190f35b61016e6004803603606081101561014c57600080fd5b506001600160a01b0381358116916020810135821691604090910135166103ce565b604080516001600160a01b039092168252519081900360200190f35b61016e610489565b6101b8600480360360208110156101a857600080fd5b50356001600160a01b03166104a1565b60408051602080825283518183015283519192839290830191858101910280838360005b838110156101f45781810151838201526020016101dc565b505050509050019250505060405180910390f35b61012461059e565b61016e6105a5565b6101246004803603604081101561022e57600080fd5b506001600160a01b0381351690602001356105bd565b61026a6004803603602081101561025a57600080fd5b50356001600160a01b03166105d7565b604080519115158252519081900360200190f35b81801561028a57600080fd5b506102c7600480360360808110156102a157600080fd5b506001600160a01b0381358116916020810135909116906040810135906060013561070b565b005b61016e600480360360408110156102df57600080fd5b506001600160a01b038135811691602001351661092f565b600080600080737a250d5630b4cf539739df2c5dacb4c659f2488d9050610397737a250d5630b4cf539739df2c5dacb4c659f2488d87836001600160a01b031663ad5c46486040518163ffffffff1660e01b815260040160206040518083038186803b15801561036657600080fd5b505afa15801561037a573d6000803e3d6000fd5b505050506040513d602081101561039057600080fd5b50516109c5565b90935091506103a7858484610a8c565b9350509250925092565b60006103c6848385816103c057fe5b046105bd565b949350505050565b60008060006103dd8585610b46565b604080516001600160601b0319606094851b811660208084019190915293851b81166034830152825160288184030181526048830184528051908501206001600160f81b031960688401529a90941b9093166069840152607d8301989098527f96e8ac4277198ff8b6f785478aa9a39f403cb768dd02cbee326c3e7da348845f609d808401919091528851808403909101815260bd909201909752805196019590952095945050505050565b737a250d5630b4cf539739df2c5dacb4c659f2488d81565b6040805160028082526060828101909352737a250d5630b4cf539739df2c5dacb4c659f2488d91839181602001602082028036833701905050905083816000815181106104ea57fe5b60200260200101906001600160a01b031690816001600160a01b031681525050816001600160a01b031663ad5c46486040518163ffffffff1660e01b815260040160206040518083038186803b15801561054357600080fd5b505afa158015610557573d6000803e3d6000fd5b505050506040513d602081101561056d57600080fd5b505181518290600190811061057e57fe5b6001600160a01b0390921660209283029190910190910152915050919050565b620f424081565b731da48ae241b984c8ba795677616dcc13b93e4d6081565b60006105c983836102f7565b5050620f4240029392505050565b6000806001600160a01b0316731da48ae241b984c8ba795677616dcc13b93e4d606001600160a01b031663e6a4390584737a250d5630b4cf539739df2c5dacb4c659f2488d6001600160a01b031663ad5c46486040518163ffffffff1660e01b815260040160206040518083038186803b15801561065457600080fd5b505afa158015610668573d6000803e3d6000fd5b505050506040513d602081101561067e57600080fd5b5051604080516001600160e01b031960e086901b1681526001600160a01b039384166004820152929091166024830152516044808301926020929190829003018186803b1580156106ce57600080fd5b505afa1580156106e2573d6000803e3d6000fd5b505050506040513d60208110156106f857600080fd5b50516001600160a01b0316141592915050565b737a250d5630b4cf539739df2c5dacb4c659f2488d8063fb3bdb41348561073b6107368a600061092f565b6104a1565b88876040518663ffffffff1660e01b81526004018085815260200180602001846001600160a01b03168152602001838152602001828103825285818151815260200191508051906020019060200280838360005b838110156107a757818101518382015260200161078f565b50505050905001955050505050506000604051808303818588803b1580156107ce57600080fd5b505af11580156107e2573d6000803e3d6000fd5b50505050506040513d6000823e601f3d908101601f19168201604052602081101561080c57600080fd5b8101908080516040519392919084600160201b82111561082b57600080fd5b90830190602082018581111561084057600080fd5b82518660208202830111600160201b8211171561085c57600080fd5b82525081516020918201928201910280838360005b83811015610889578181015183820152602001610871565b5050505091909101604081905260009550339450479350915084905081818185875af1925050503d80600081146108dc576040519150601f19603f3d011682016040523d82523d6000602084013e6108e1565b606091505b5050905080610927576040805162461bcd60e51b815260206004820152600d60248201526c1c99599d5b990819985a5b1959609a1b604482015290519081900360640190fd5b505050505050565b604080516001600160601b0319606093841b8116602080840191909152835180840360140181526034840185528051908201206001600160f81b031960548501529590941b16605582015260698101939093527fcd4902b65e1285dd3266dd5a6212b18ff94b962e082ca6cd0a3c4538738b4a966089808501919091528151808503909101815260a99093019052815191012090565b60008060006109d48585610b46565b5090506000806109e58888886103ce565b6001600160a01b0316630902f1ac6040518163ffffffff1660e01b815260040160606040518083038186803b158015610a1d57600080fd5b505afa158015610a31573d6000803e3d6000fd5b505050506040513d6060811015610a4757600080fd5b5080516020909101516001600160701b0391821693501690506001600160a01b0387811690841614610a7a578082610a7d565b81815b90999098509650505050505050565b6000808411610ad1576040805162461bcd60e51b815260206004820152600c60248201526b50726963653a20507269636560a01b604482015290519081900360640190fd5b600083118015610ae15750600082115b610b32576040805162461bcd60e51b815260206004820152601d60248201527f50726963653a20494e53554646494349454e545f4c4951554944495459000000604482015290519081900360640190fd5b8282850281610b3d57fe5b04949350505050565b600080826001600160a01b0316846001600160a01b03161415610bad576040805162461bcd60e51b815260206004820152601a60248201527950726963653a204944454e544943414c5f41444452455353455360301b604482015290519081900360640190fd5b826001600160a01b0316846001600160a01b031610610bcd578284610bd0565b83835b90925090506001600160a01b038216610c26576040805162461bcd60e51b815260206004820152601360248201527250726963653a205a45524f5f4144445245535360681b604482015290519081900360640190fd5b925092905056fea264697066735822122020e4008c4c327f0d479f4c914d9b4a10eb6a8ba0d02440aa4ddf2459e038af2b64736f6c63430007030033",
  "devdoc": {
    "kind": "dev",
    "methods": {},
    "version": 1
  },
  "userdoc": {
    "kind": "user",
    "methods": {},
    "version": 1
  },
  "storageLayout": {
    "storage": [],
    "types": null
  }
}