{
  "address": "0x9783229bF1b79321d3151b1C586aC28B62870d15",
  "abi": [
    {
      "inputs": [],
      "stateMutability": "nonpayable",
      "type": "constructor"
    },
    {
      "anonymous": false,
      "inputs": [
        {
          "indexed": true,
          "internalType": "address",
          "name": "token",
          "type": "address"
        },
        {
          "indexed": true,
          "internalType": "address",
          "name": "qtoken",
          "type": "address"
        },
        {
          "indexed": false,
          "internalType": "uint256",
          "name": "newLen",
          "type": "uint256"
        }
      ],
      "name": "QuantizedCreated",
      "type": "event"
    },
    {
      "inputs": [
        {
          "internalType": "uint256",
          "name": "idx",
          "type": "uint256"
        }
      ],
      "name": "allQuantized",
      "outputs": [
        {
          "internalType": "address",
          "name": "quantizedToken",
          "type": "address"
        }
      ],
      "stateMutability": "view",
      "type": "function"
    },
    {
      "inputs": [],
      "name": "allQuantizedLength",
      "outputs": [
        {
          "internalType": "uint256",
          "name": "",
          "type": "uint256"
        }
      ],
      "stateMutability": "view",
      "type": "function"
    },
    {
      "inputs": [
        {
          "internalType": "address",
          "name": "owner",
          "type": "address"
        },
        {
          "internalType": "address",
          "name": "multiToken",
          "type": "address"
        },
        {
          "internalType": "uint256",
          "name": "tokenHash",
          "type": "uint256"
        }
      ],
      "name": "createQuantized",
      "outputs": [
        {
          "internalType": "address",
          "name": "quantizedToken",
          "type": "address"
        }
      ],
      "stateMutability": "nonpayable",
      "type": "function"
    },
    {
      "inputs": [
        {
          "internalType": "address",
          "name": "_addr",
          "type": "address"
        }
      ],
      "name": "getQuantized",
      "outputs": [
        {
          "internalType": "address",
          "name": "quantizedToken",
          "type": "address"
        }
      ],
      "stateMutability": "view",
      "type": "function"
    },
    {
      "inputs": [
        {
          "internalType": "address",
          "name": "_addr",
          "type": "address"
        }
      ],
      "name": "getQuantizedSource",
      "outputs": [
        {
          "internalType": "address",
          "name": "quantizedSource",
          "type": "address"
        }
      ],
      "stateMutability": "view",
      "type": "function"
    },
    {
      "inputs": [
        {
          "internalType": "address",
          "name": "_operator",
          "type": "address"
        }
      ],
      "name": "setOperator",
      "outputs": [],
      "stateMutability": "nonpayable",
      "type": "function"
    }
  ],
  "transactionHash": "0x07e6fc144b75dd5946a259f833b0ce02e74b6b7747823e72cb4a29c65e7c65cd",
  "args": [],
  "solcInputHash": "39ea6b62d3ccbb1d057e5219143250c2",
  "bytecode": "0x608060405234801561001057600080fd5b506115e7806100206000396000f3fe608060405234801561001057600080fd5b50600436106100625760003560e01c80634f41d434146100675780637e2f2d59146100815780638e24cd6d146100c35780639ab6ca36146100e9578063a43517c71461011f578063b3ab15fb1461013c575b600080fd5b61006f610164565b60408051918252519081900360200190f35b6100a76004803603602081101561009757600080fd5b50356001600160a01b031661016a565b604080516001600160a01b039092168252519081900360200190f35b6100a7600480360360208110156100d957600080fd5b50356001600160a01b0316610188565b6100a7600480360360608110156100ff57600080fd5b506001600160a01b038135811691602081013590911690604001356101a6565b6100a76004803603602081101561013557600080fd5b50356104ab565b6101626004803603602081101561015257600080fd5b50356001600160a01b03166104d5565b005b60035490565b6001600160a01b039081166000908152600260205260409020541690565b6001600160a01b039081166000908152600160205260409020541690565b600080546001600160a01b031633146101f5576040805162461bcd60e51b815260206004820152600c60248201526b15539055551213d49256915160a21b604482015290519081900360640190fd5b6001600160a01b038281166000908152600260205260409020541615610251576040805162461bcd60e51b815260206004820152600c60248201526b544f4b454e5f45584953545360a01b604482015290519081900360640190fd5b6001600160a01b0382811660009081526001602052604090205416156102ad576040805162461bcd60e51b815260206004820152600c60248201526b544f4b454e5f45584953545360a01b604482015290519081900360640190fd5b600084848460405160200180846001600160a01b031660601b8152601401836001600160a01b031660601b8152601401828152602001935050505060405160208183030381529060405280519060200120905060606040518060200161031290610626565b6020820181038252601f19601f820116604052509050818151602083016000f59250826001600160a01b031663c0c53b8b8787876040518463ffffffff1660e01b815260040180846001600160a01b03168152602001836001600160a01b03168152602001826001600160a01b031681526020019350505050600060405180830381600087803b1580156103a557600080fd5b505af11580156103b9573d6000803e3d6000fd5b505050506103ef6040518060400160405280600f81526020016e18dc99585d19545d585b9d1a5e9959608a1b8152508585610541565b6001600160a01b0380851660008181526001602081815260408084208054968a166001600160a01b03199788168117909155808552600283528185208054881687179055600380549485018155948590527fc2575a0e9e593c00f959f8c92f12db2869c3395a3b0502d05e2516446f71f85b9093018054909616831790955591548451908152935190937faabb67e21680bc4349f0920b52d5aa058a1694c74e926fa921bb5817c632e34592908290030190a350509392505050565b6000600382815481106104ba57fe5b6000918252602090912001546001600160a01b031692915050565b6000546001600160a01b03161561051f576040805162461bcd60e51b8152602060048201526009602482015268494d4d555441424c4560b81b604482015290519081900360640190fd5b600080546001600160a01b0319166001600160a01b0392909216919091179055565b6106008383836040516024018080602001848152602001836001600160a01b03168152602001828103825285818151815260200191508051906020019080838360005b8381101561059c578181015183820152602001610584565b50505050905090810190601f1680156105c95780820380516001836020036101000a031916815260200191505b5060408051601f198184030181529190526020810180516001600160e01b031663e3849f7960e01b17905294506106059350505050565b505050565b80516a636f6e736f6c652e6c6f67602083016000808483855afa5050505050565b610f7e806106348339019056fe608060405234801561001057600080fd5b50610f5e806100206000396000f3fe608060405234801561001057600080fd5b50600436106100af5760003560e01c806306fdde03146100b45780630731a36914610131578063095ea7b31461026f57806318160ddd146102af5780631a9d4dc9146102c957806323b872dd146103fc578063313ce5671461043257806370a082311461045057806375991d421461047657806395d89b411461047e578063a9059cbb14610486578063c0c53b8b146104b2578063dd62ed3e146104ea575b600080fd5b6100bc610518565b6040805160208082528351818301528351919283929083019185019080838360005b838110156100f65781810151838201526020016100de565b50505050905090810190601f1680156101235780820380516001836020036101000a031916815260200191505b509250505060405180910390f35b61026d6004803603608081101561014757600080fd5b6001600160a01b038235811692602081013590911691810190606081016040820135600160201b81111561017a57600080fd5b82018360208201111561018c57600080fd5b803590602001918460208302840111600160201b831117156101ad57600080fd5b9190808060200260200160405190810160405280939291908181526020018383602002808284376000920191909152509295949360208101935035915050600160201b8111156101fc57600080fd5b82018360208201111561020e57600080fd5b803590602001918460208302840111600160201b8311171561022f57600080fd5b91908080602002602001604051908101604052809392919081815260200183836020028082843760009201919091525092955061064d945050505050565b005b61029b6004803603604081101561028557600080fd5b506001600160a01b0381351690602001356107c2565b604080519115158252519081900360200190f35b6102b7610845565b60408051918252519081900360200190f35b61029b600480360360608110156102df57600080fd5b6001600160a01b038235169190810190604081016020820135600160201b81111561030957600080fd5b82018360208201111561031b57600080fd5b803590602001918460208302840111600160201b8311171561033c57600080fd5b9190808060200260200160405190810160405280939291908181526020018383602002808284376000920191909152509295949360208101935035915050600160201b81111561038b57600080fd5b82018360208201111561039d57600080fd5b803590602001918460208302840111600160201b831117156103be57600080fd5b9190808060200260200160405190810160405280939291908181526020018383602002808284376000920191909152509295506108bb945050505050565b61029b6004803603606081101561041257600080fd5b506001600160a01b03813581169160208101359091169060400135610a25565b61043a610ab3565b6040805160ff9092168252519081900360200190f35b6102b76004803603602081101561046657600080fd5b50356001600160a01b0316610af8565b6102b7610b84565b6100bc610bd8565b61029b6004803603604081101561049c57600080fd5b506001600160a01b038135169060200135610c1d565b61026d600480360360608110156104c857600080fd5b506001600160a01b038135811691602081013582169160409091013516610c33565b6102b76004803603604081101561050057600080fd5b506001600160a01b0381358116916020013516610cc7565b600354604080516306fdde0360e01b815290516060926001600160a01b0316916306fdde03916004808301926000929190829003018186803b15801561055d57600080fd5b505afa158015610571573d6000803e3d6000fd5b505050506040513d6000823e601f3d908101601f19168201604052602081101561059a57600080fd5b8101908080516040519392919084600160201b8211156105b957600080fd5b9083019060208201858111156105ce57600080fd5b8251600160201b8111828201881017156105e757600080fd5b82525081516020918201929091019080838360005b838110156106145781810151838201526020016105fc565b50505050905090810190601f1680156106415780820380516001836020036101000a031916815260200191505b50604052505050905090565b6001600160a01b03831661069b576040805162461bcd60e51b815260206004820152601060248201526f2d22a927afa222a9aa24a720aa24a7a760811b604482015290519081900360640190fd5b600254604051631759616b60e11b81526001600160a01b0386811660048301908152868216602484015260a060448401908152865160a485015286519290941693632eb2c2d6938993899389938993919290916064810191608482019160c401906020808901910280838360005b83811015610721578181015183820152602001610709565b50505050905001848103835285818151815260200191508051906020019060200280838360005b83811015610760578181015183820152602001610748565b50505050905001848103825260038152602001806203078360ec1b815250602001975050505050505050600060405180830381600087803b1580156107a457600080fd5b505af11580156107b8573d6000803e3d6000fd5b5050505050505050565b60006107cf338484610cf0565b6002546040805163a22cb46560e01b81526001600160a01b038681166004830152600160248301529151919092169163a22cb46591604480830192600092919082900301818387803b15801561082457600080fd5b505af1158015610838573d6000803e3d6000fd5b5060019695505050505050565b600354604080516318160ddd60e01b815290516000926001600160a01b0316916318160ddd916004808301926020929190829003018186803b15801561088a57600080fd5b505afa15801561089e573d6000803e3d6000fd5b505050506040513d60208110156108b457600080fd5b5051919050565b600080835111610905576040805162461bcd60e51b815260206004820152601060248201526f2d22a927afa222a9aa24a720aa24a7a760811b604482015290519081900360640190fd5b81518351146109455760405162461bcd60e51b8152600401808060200182810382526021815260200180610f086021913960400191505060405180910390fd5b60005b8351811015610a1a576001600160a01b038516600090815260208181526040808320338452909152902054600019146109e1576109be83828151811061098a57fe5b6020908102919091018101516001600160a01b03881660009081528083526040808220338352909352919091205490610d50565b6001600160a01b0386166000908152602081815260408083203384529091529020555b610a12858583815181106109f157fe5b6020026020010151858481518110610a0557fe5b6020026020010151610dad565b600101610948565b506001949350505050565b6001600160a01b03831660009081526020818152604080832033845290915281205460001914610a9e576001600160a01b038416600090815260208181526040808320338452909152902054610a7b9083610d50565b6001600160a01b0385166000908152602081815260408083203384529091529020555b610aa9848484610dad565b5060019392505050565b6003546040805163313ce56760e01b815290516000926001600160a01b03169163313ce567916004808301926020929190829003018186803b15801561088a57600080fd5b60025460035460408051627eeac760e11b81526001600160a01b03858116600483015292831660248201529051600093929092169162fdd58e91604480820192602092909190829003018186803b158015610b5257600080fd5b505afa158015610b66573d6000803e3d6000fd5b505050506040513d6020811015610b7c57600080fd5b505192915050565b600354600154604080516370a0823160e01b81526001600160a01b039283166004820152905160009392909216916370a0823191602480820192602092909190829003018186803b15801561088a57600080fd5b600354604080516395d89b4160e01b815290516060926001600160a01b0316916395d89b41916004808301926000929190829003018186803b15801561055d57600080fd5b6000610c2a338484610dad565b50600192915050565b6001546001600160a01b031615610c88576040805162461bcd60e51b815260206004820152601460248201527328bab0b73a34bd32b21d102327a92124a22222a760611b604482015290519081900360640190fd5b600180546001600160a01b039485166001600160a01b031991821617909155600280549385169382169390931790925560038054919093169116179055565b6001600160a01b0391821660009081526020818152604080832093909416825291909152205490565b6001600160a01b0380841660008181526020818152604080832094871680845294825291829020859055815185815291517f8c5be1e5ebec7d5bd14f71427d1e84f3dd0314c0f7b2291e5b200ac8c7c3b9259281900390910190a3505050565b600082821115610da7576040805162461bcd60e51b815260206004820152601e60248201527f536166654d6174683a207375627472616374696f6e206f766572666c6f770000604482015290519081900360640190fd5b50900390565b6001600160a01b03831660009081526020818152604080832033845290915290205460001914610e26576001600160a01b038316600090815260208181526040808320338452909152902054610e039082610d50565b6001600160a01b0384166000908152602081815260408083203384529091529020555b6002546003805460408051637921219560e11b81526001600160a01b038881166004830152878116602483015292831660448201526064810186905260a0608482015260a48101939093526203078360ec1b60c48401525192169163f242432a9160e48082019260009290919082900301818387803b158015610ea857600080fd5b505af1158015610ebc573d6000803e3d6000fd5b50506040805184815290516001600160a01b038087169450871692507fddf252ad1be2c89b69c2b068fc378daa952ba7f163c4a11628f55a4df523b3ef9181900360200190a350505056fe746f20616e642076616c7565206c656e6774687320646f206e6f74206d61746368a2646970667358221220717c85de2556b3948aca7e1b7199777ddae34d314e5a9329a7fed9264c0a77c164736f6c63430007030033a264697066735822122099fc46c29b3f39f76f27da170a08fdb4b31262d0e85a49e700fd4d81e18c6c4d64736f6c63430007030033",
  "devdoc": {
    "events": {
      "QuantizedCreated(address,address,uint256)": {
        "details": "emitted when a new quantized token has been added to the system"
      }
    },
    "kind": "dev",
    "methods": {
      "allQuantized(uint256)": {
        "details": "get the quantized token for this"
      },
      "allQuantizedLength()": {
        "details": "number of quantized addresses"
      },
      "constructor": {
        "details": "Contract initializer."
      },
      "createQuantized(address,address,uint256)": {
        "details": "deploy a new erc20 token using create2"
      },
      "getQuantized(address)": {
        "details": "get the quantized token for this"
      },
      "getQuantizedSource(address)": {
        "details": "is this a quantized token"
      },
      "setOperator(address)": {
        "details": "Set the address allowed to mint and burn"
      }
    },
    "version": 1
  },
  "userdoc": {
    "kind": "user",
    "methods": {},
    "version": 1
  },
  "storageLayout": {
    "storage": [
      {
        "astId": 9699,
        "contract": "src/factories/QuantizedERC20Factory.sol:QuantizedERC20Factory",
        "label": "operator",
        "offset": 0,
        "slot": "0",
        "type": "t_address"
      },
      {
        "astId": 9703,
        "contract": "src/factories/QuantizedERC20Factory.sol:QuantizedERC20Factory",
        "label": "_getQuantized",
        "offset": 0,
        "slot": "1",
        "type": "t_mapping(t_address,t_address)"
      },
      {
        "astId": 9707,
        "contract": "src/factories/QuantizedERC20Factory.sol:QuantizedERC20Factory",
        "label": "_getQuantizedSource",
        "offset": 0,
        "slot": "2",
        "type": "t_mapping(t_address,t_address)"
      },
      {
        "astId": 9710,
        "contract": "src/factories/QuantizedERC20Factory.sol:QuantizedERC20Factory",
        "label": "_allQuantized",
        "offset": 0,
        "slot": "3",
        "type": "t_array(t_address)dyn_storage"
      }
    ],
    "types": {
      "t_address": {
        "encoding": "inplace",
        "label": "address",
        "numberOfBytes": "20"
      },
      "t_array(t_address)dyn_storage": {
        "base": "t_address",
        "encoding": "dynamic_array",
        "label": "address[]",
        "numberOfBytes": "32"
      },
      "t_mapping(t_address,t_address)": {
        "encoding": "mapping",
        "key": "t_address",
        "label": "mapping(address => address)",
        "numberOfBytes": "32",
        "value": "t_address"
      }
    }
  }
}