{
  "address": "0x3bD8624cfDc61E70C981c5e9974Aef7EB8832397",
  "abi": [
    {
      "inputs": [],
      "stateMutability": "nonpayable",
      "type": "constructor"
    },
    {
      "anonymous": false,
      "inputs": [
        {
          "indexed": true,
          "internalType": "address",
          "name": "account",
          "type": "address"
        },
        {
          "indexed": true,
          "internalType": "address",
          "name": "operator",
          "type": "address"
        },
        {
          "indexed": false,
          "internalType": "bool",
          "name": "approved",
          "type": "bool"
        }
      ],
      "name": "ApprovalForAll",
      "type": "event"
    },
    {
      "anonymous": false,
      "inputs": [
        {
          "indexed": false,
          "internalType": "address",
          "name": "account",
          "type": "address"
        }
      ],
      "name": "Paused",
      "type": "event"
    },
    {
      "anonymous": false,
      "inputs": [
        {
          "indexed": false,
          "internalType": "address",
          "name": "account",
          "type": "address"
        },
        {
          "indexed": true,
          "internalType": "address",
          "name": "token",
          "type": "address"
        },
        {
          "indexed": false,
          "internalType": "uint256",
          "name": "amount",
          "type": "uint256"
        }
      ],
      "name": "QuantizedTokenGenerated",
      "type": "event"
    },
    {
      "anonymous": false,
      "inputs": [
        {
          "indexed": true,
          "internalType": "address",
          "name": "operator",
          "type": "address"
        },
        {
          "indexed": true,
          "internalType": "address",
          "name": "from",
          "type": "address"
        },
        {
          "indexed": true,
          "internalType": "address",
          "name": "to",
          "type": "address"
        },
        {
          "indexed": false,
          "internalType": "uint256[]",
          "name": "ids",
          "type": "uint256[]"
        },
        {
          "indexed": false,
          "internalType": "uint256[]",
          "name": "values",
          "type": "uint256[]"
        }
      ],
      "name": "TransferBatch",
      "type": "event"
    },
    {
      "anonymous": false,
      "inputs": [
        {
          "indexed": true,
          "internalType": "address",
          "name": "operator",
          "type": "address"
        },
        {
          "indexed": true,
          "internalType": "address",
          "name": "from",
          "type": "address"
        },
        {
          "indexed": true,
          "internalType": "address",
          "name": "to",
          "type": "address"
        },
        {
          "indexed": false,
          "internalType": "uint256",
          "name": "id",
          "type": "uint256"
        },
        {
          "indexed": false,
          "internalType": "uint256",
          "name": "value",
          "type": "uint256"
        }
      ],
      "name": "TransferSingle",
      "type": "event"
    },
    {
      "anonymous": false,
      "inputs": [
        {
          "indexed": false,
          "internalType": "string",
          "name": "value",
          "type": "string"
        },
        {
          "indexed": true,
          "internalType": "uint256",
          "name": "id",
          "type": "uint256"
        }
      ],
      "name": "URI",
      "type": "event"
    },
    {
      "anonymous": false,
      "inputs": [
        {
          "indexed": false,
          "internalType": "address",
          "name": "account",
          "type": "address"
        }
      ],
      "name": "Unpaused",
      "type": "event"
    },
    {
      "inputs": [
        {
          "internalType": "address",
          "name": "account",
          "type": "address"
        },
        {
          "internalType": "uint256",
          "name": "id",
          "type": "uint256"
        }
      ],
      "name": "balanceOf",
      "outputs": [
        {
          "internalType": "uint256",
          "name": "",
          "type": "uint256"
        }
      ],
      "stateMutability": "view",
      "type": "function"
    },
    {
      "inputs": [
        {
          "internalType": "address[]",
          "name": "accounts",
          "type": "address[]"
        },
        {
          "internalType": "uint256[]",
          "name": "ids",
          "type": "uint256[]"
        }
      ],
      "name": "balanceOfBatch",
      "outputs": [
        {
          "internalType": "uint256[]",
          "name": "",
          "type": "uint256[]"
        }
      ],
      "stateMutability": "view",
      "type": "function"
    },
    {
      "inputs": [
        {
          "internalType": "address",
          "name": "account",
          "type": "address"
        },
        {
          "internalType": "address",
          "name": "token",
          "type": "address"
        },
        {
          "internalType": "uint256",
          "name": "amount",
          "type": "uint256"
        }
      ],
      "name": "burn",
      "outputs": [],
      "stateMutability": "nonpayable",
      "type": "function"
    },
    {
      "inputs": [],
      "name": "inithash",
      "outputs": [
        {
          "internalType": "bytes32",
          "name": "",
          "type": "bytes32"
        }
      ],
      "stateMutability": "nonpayable",
      "type": "function"
    },
    {
      "inputs": [
        {
          "internalType": "address",
          "name": "account",
          "type": "address"
        },
        {
          "internalType": "address",
          "name": "operator",
          "type": "address"
        }
      ],
      "name": "isApprovedForAll",
      "outputs": [
        {
          "internalType": "bool",
          "name": "",
          "type": "bool"
        }
      ],
      "stateMutability": "view",
      "type": "function"
    },
    {
      "inputs": [
        {
          "internalType": "address",
          "name": "account",
          "type": "address"
        },
        {
          "internalType": "address",
          "name": "token",
          "type": "address"
        },
        {
          "internalType": "uint256",
          "name": "amount",
          "type": "uint256"
        }
      ],
      "name": "mint",
      "outputs": [],
      "stateMutability": "nonpayable",
      "type": "function"
    },
    {
      "inputs": [
        {
          "internalType": "address",
          "name": "",
          "type": "address"
        },
        {
          "internalType": "address",
          "name": "",
          "type": "address"
        },
        {
          "internalType": "uint256[]",
          "name": "",
          "type": "uint256[]"
        },
        {
          "internalType": "uint256[]",
          "name": "",
          "type": "uint256[]"
        },
        {
          "internalType": "bytes",
          "name": "",
          "type": "bytes"
        }
      ],
      "name": "onERC1155BatchReceived",
      "outputs": [
        {
          "internalType": "bytes4",
          "name": "",
          "type": "bytes4"
        }
      ],
      "stateMutability": "nonpayable",
      "type": "function"
    },
    {
      "inputs": [
        {
          "internalType": "address",
          "name": "",
          "type": "address"
        },
        {
          "internalType": "address",
          "name": "",
          "type": "address"
        },
        {
          "internalType": "uint256",
          "name": "",
          "type": "uint256"
        },
        {
          "internalType": "uint256",
          "name": "",
          "type": "uint256"
        },
        {
          "internalType": "bytes",
          "name": "",
          "type": "bytes"
        }
      ],
      "name": "onERC1155Received",
      "outputs": [
        {
          "internalType": "bytes4",
          "name": "",
          "type": "bytes4"
        }
      ],
      "stateMutability": "nonpayable",
      "type": "function"
    },
    {
      "inputs": [],
      "name": "paused",
      "outputs": [
        {
          "internalType": "bool",
          "name": "",
          "type": "bool"
        }
      ],
      "stateMutability": "view",
      "type": "function"
    },
    {
      "inputs": [
        {
          "internalType": "address",
          "name": "from",
          "type": "address"
        },
        {
          "internalType": "address",
          "name": "to",
          "type": "address"
        },
        {
          "internalType": "uint256[]",
          "name": "ids",
          "type": "uint256[]"
        },
        {
          "internalType": "uint256[]",
          "name": "amounts",
          "type": "uint256[]"
        },
        {
          "internalType": "bytes",
          "name": "data",
          "type": "bytes"
        }
      ],
      "name": "safeBatchTransferFrom",
      "outputs": [],
      "stateMutability": "nonpayable",
      "type": "function"
    },
    {
      "inputs": [
        {
          "internalType": "address",
          "name": "from",
          "type": "address"
        },
        {
          "internalType": "address",
          "name": "to",
          "type": "address"
        },
        {
          "internalType": "uint256",
          "name": "id",
          "type": "uint256"
        },
        {
          "internalType": "uint256",
          "name": "amount",
          "type": "uint256"
        },
        {
          "internalType": "bytes",
          "name": "data",
          "type": "bytes"
        }
      ],
      "name": "safeTransferFrom",
      "outputs": [],
      "stateMutability": "nonpayable",
      "type": "function"
    },
    {
      "inputs": [
        {
          "internalType": "address",
          "name": "operator",
          "type": "address"
        },
        {
          "internalType": "bool",
          "name": "approved",
          "type": "bool"
        }
      ],
      "name": "setApprovalForAll",
      "outputs": [],
      "stateMutability": "nonpayable",
      "type": "function"
    },
    {
      "inputs": [
        {
          "internalType": "address",
          "name": "_operator",
          "type": "address"
        }
      ],
      "name": "setOperator",
      "outputs": [],
      "stateMutability": "nonpayable",
      "type": "function"
    },
    {
      "inputs": [
        {
          "internalType": "bytes4",
          "name": "interfaceId",
          "type": "bytes4"
        }
      ],
      "name": "supportsInterface",
      "outputs": [
        {
          "internalType": "bool",
          "name": "",
          "type": "bool"
        }
      ],
      "stateMutability": "view",
      "type": "function"
    },
    {
      "inputs": [
        {
          "internalType": "uint256",
          "name": "_id",
          "type": "uint256"
        }
      ],
      "name": "totalBalances",
      "outputs": [
        {
          "internalType": "uint256",
          "name": "",
          "type": "uint256"
        }
      ],
      "stateMutability": "view",
      "type": "function"
    },
    {
      "inputs": [
        {
          "internalType": "uint256",
          "name": "_id",
          "type": "uint256"
        }
      ],
      "name": "uri",
      "outputs": [
        {
          "internalType": "string",
          "name": "",
          "type": "string"
        }
      ],
      "stateMutability": "view",
      "type": "function"
    }
  ],
  "transactionHash": "0xa2fab953c4616dea394e9160268a2b32e378710c82675261298099d37363216f",
  "args": [],
  "solcInputHash": "39ea6b62d3ccbb1d057e5219143250c2",
  "bytecode": "0x60806040523480156200001157600080fd5b506040518060600160405280602d81526020016200255f602d91396200003e6301ffc9a760e01b62000090565b620000498162000115565b6200005b636cdb3d1360e11b62000090565b6200006d6303a24d0760e21b62000090565b506004805460ff191690556200008a630271189760e51b62000090565b620001ca565b6001600160e01b03198082161415620000f0576040805162461bcd60e51b815260206004820152601c60248201527f4552433136353a20696e76616c696420696e7465726661636520696400000000604482015290519081900360640190fd5b6001600160e01b0319166000908152602081905260409020805460ff19166001179055565b80516200012a9060039060208401906200012e565b5050565b828054600181600116156101000203166002900490600052602060002090601f016020900481019282601f106200017157805160ff1916838001178555620001a1565b82800160010185558215620001a1579182015b82811115620001a157825182559160200191906001019062000184565b50620001af929150620001b3565b5090565b5b80821115620001af5760008155600101620001b4565b61238580620001da6000396000f3fe608060405234801561001057600080fd5b50600436106100cf5760003560e01c8062fdd58e146100d457806301ffc9a7146101125780630e89341c1461014d5780632eb2c2d6146101df5780634e1273f4146103a25780635c975abb14610515578063a22cb4651461051d578063b3ab15fb1461054b578063bc197c8114610571578063c6c3bbe61461074f578063d449847214610785578063e985e9c51461078d578063ed7aae2b146107bb578063f23a6e61146107d8578063f242432a146108a1578063f6b911bc1461096a575b600080fd5b610100600480360360408110156100ea57600080fd5b506001600160a01b0381351690602001356109a0565b60408051918252519081900360200190f35b6101396004803603602081101561012857600080fd5b50356001600160e01b031916610a0f565b604080519115158252519081900360200190f35b61016a6004803603602081101561016357600080fd5b5035610a32565b6040805160208082528351818301528351919283929083019185019080838360005b838110156101a457818101518382015260200161018c565b50505050905090810190601f1680156101d15780820380516001836020036101000a031916815260200191505b509250505060405180910390f35b6103a0600480360360a08110156101f557600080fd5b6001600160a01b038235811692602081013590911691810190606081016040820135600160201b81111561022857600080fd5b82018360208201111561023a57600080fd5b803590602001918460208302840111600160201b8311171561025b57600080fd5b9190808060200260200160405190810160405280939291908181526020018383602002808284376000920191909152509295949360208101935035915050600160201b8111156102aa57600080fd5b8201836020820111156102bc57600080fd5b803590602001918460208302840111600160201b831117156102dd57600080fd5b9190808060200260200160405190810160405280939291908181526020018383602002808284376000920191909152509295949360208101935035915050600160201b81111561032c57600080fd5b82018360208201111561033e57600080fd5b803590602001918460018302840111600160201b8311171561035f57600080fd5b91908080601f016020809104026020016040519081016040528093929190818152602001838380828437600092019190915250929550610bc5945050505050565b005b6104c5600480360360408110156103b857600080fd5b810190602081018135600160201b8111156103d257600080fd5b8201836020820111156103e457600080fd5b803590602001918460208302840111600160201b8311171561040557600080fd5b9190808060200260200160405190810160405280939291908181526020018383602002808284376000920191909152509295949360208101935035915050600160201b81111561045457600080fd5b82018360208201111561046657600080fd5b803590602001918460208302840111600160201b8311171561048757600080fd5b919080806020026020016040519081016040528093929190818152602001838360200280828437600092019190915250929550610ec3945050505050565b60408051602080825283518183015283519192839290830191858101910280838360005b838110156105015781810151838201526020016104e9565b505050509050019250505060405180910390f35b610139610fae565b6103a06004803603604081101561053357600080fd5b506001600160a01b0381351690602001351515610fb8565b6103a06004803603602081101561056157600080fd5b50356001600160a01b03166110a7565b610732600480360360a081101561058757600080fd5b6001600160a01b038235811692602081013590911691810190606081016040820135600160201b8111156105ba57600080fd5b8201836020820111156105cc57600080fd5b803590602001918460208302840111600160201b831117156105ed57600080fd5b9190808060200260200160405190810160405280939291908181526020018383602002808284376000920191909152509295949360208101935035915050600160201b81111561063c57600080fd5b82018360208201111561064e57600080fd5b803590602001918460208302840111600160201b8311171561066f57600080fd5b9190808060200260200160405190810160405280939291908181526020018383602002808284376000920191909152509295949360208101935035915050600160201b8111156106be57600080fd5b8201836020820111156106d057600080fd5b803590602001918460018302840111600160201b831117156106f157600080fd5b91908080601f01602080910402602001604051908101604052809392919081815260200183838082843760009201919091525092955061111e945050505050565b604080516001600160e01b03199092168252519081900360200190f35b6103a06004803603606081101561076557600080fd5b506001600160a01b0381358116916020810135909116906040013561112f565b610100611234565b610139600480360360408110156107a357600080fd5b506001600160a01b0381358116916020013516611239565b610100600480360360208110156107d157600080fd5b5035611267565b610732600480360360a08110156107ee57600080fd5b6001600160a01b03823581169260208101359091169160408201359160608101359181019060a081016080820135600160201b81111561082d57600080fd5b82018360208201111561083f57600080fd5b803590602001918460018302840111600160201b8311171561086057600080fd5b91908080601f016020809104026020016040519081016040528093929190818152602001838380828437600092019190915250929550611279945050505050565b6103a0600480360360a08110156108b757600080fd5b6001600160a01b03823581169260208101359091169160408201359160608101359181019060a081016080820135600160201b8111156108f657600080fd5b82018360208201111561090857600080fd5b803590602001918460018302840111600160201b8311171561092957600080fd5b91908080601f01602080910402602001604051908101604052809392919081815260200183838082843760009201919091525092955061128a945050505050565b6103a06004803603606081101561098057600080fd5b506001600160a01b03813581169160208101359091169060400135611443565b60006001600160a01b0383166109e75760405162461bcd60e51b815260040180806020018281038252602b815260200180612146602b913960400191505060405180910390fd5b5060009081526001602090815260408083206001600160a01b03949094168352929052205490565b6001600160e01b0319811660009081526020819052604090205460ff165b919050565b600081815260056020526040902054606090610a7f5760405162461bcd60e51b81526004018080602001828103825260278152602001806121ea6027913960400191505060405180910390fd5b610bbf306001600160a01b0316630e89341c846040518263ffffffff1660e01b81526004018082815260200191505060006040518083038186803b158015610ac657600080fd5b505afa158015610ada573d6000803e3d6000fd5b505050506040513d6000823e601f3d908101601f191682016040526020811015610b0357600080fd5b8101908080516040519392919084600160201b821115610b2257600080fd5b908301906020820185811115610b3757600080fd5b8251600160201b811182820188101715610b5057600080fd5b82525081516020918201929091019080838360005b83811015610b7d578181015183820152602001610b65565b50505050905090810190601f168015610baa5780820380516001836020036101000a031916815260200191505b50604052505050610bba846114ee565b6115c5565b92915050565b8151835114610c055760405162461bcd60e51b81526004018080602001828103825260288152602001806123076028913960400191505060405180910390fd5b6001600160a01b038416610c4a5760405162461bcd60e51b81526004018080602001828103825260258152602001806122116025913960400191505060405180910390fd5b610c52611608565b6001600160a01b0316856001600160a01b03161480610c7d5750610c7d85610c78611608565b611239565b610cb85760405162461bcd60e51b81526004018080602001828103825260328152602001806122366032913960400191505060405180910390fd5b6000610cc2611608565b9050610cd281878787878761160c565b60005b8451811015610dd3576000858281518110610cec57fe5b602002602001015190506000858381518110610d0457fe5b60200260200101519050610d71816040518060600160405280602a815260200161228b602a91396001600086815260200190815260200160002060008d6001600160a01b03166001600160a01b031681526020019081526020016000205461165e9092919063ffffffff16565b60008381526001602090815260408083206001600160a01b038e811685529252808320939093558a1681522054610da890826116f5565b60009283526001602081815260408086206001600160a01b038d168752909152909320555001610cd5565b50846001600160a01b0316866001600160a01b0316826001600160a01b03167f4a39dc06d4c0dbc64b70af90fd698a233a518aa5d07e595d983b8c0526c8f7fb8787604051808060200180602001838103835285818151815260200191508051906020019060200280838360005b83811015610e59578181015183820152602001610e41565b50505050905001838103825284818151815260200191508051906020019060200280838360005b83811015610e98578181015183820152602001610e80565b5050505090500194505050505060405180910390a4610ebb81878787878761174d565b505050505050565b60608151835114610f055760405162461bcd60e51b81526004018080602001828103825260298152602001806122de6029913960400191505060405180910390fd5b606083516001600160401b0381118015610f1e57600080fd5b50604051908082528060200260200182016040528015610f48578160200160208202803683370190505b50905060005b8451811015610fa657610f87858281518110610f6657fe5b6020026020010151858381518110610f7a57fe5b60200260200101516109a0565b828281518110610f9357fe5b6020908102919091010152600101610f4e565b509392505050565b60045460ff165b90565b816001600160a01b0316610fca611608565b6001600160a01b031614156110105760405162461bcd60e51b81526004018080602001828103825260298152602001806122b56029913960400191505060405180910390fd5b806002600061101d611608565b6001600160a01b03908116825260208083019390935260409182016000908120918716808252919093529120805460ff191692151592909217909155611061611608565b6001600160a01b03167f17307eab39ab6107e8899845ad3d59bd9653f200f220920489ca2b5937696c318360405180821515815260200191505060405180910390a35050565b60045461010090046001600160a01b0316156110f6576040805162461bcd60e51b8152602060048201526009602482015268494d4d555441424c4560b81b604482015290519081900360640190fd5b600480546001600160a01b0390921661010002610100600160a81b0319909216919091179055565b63bc197c8160e01b95945050505050565b60045461010090046001600160a01b03163314611182576040805162461bcd60e51b815260206004820152600c60248201526b15539055551213d49256915160a21b604482015290519081900360640190fd5b6111b283836001600160a01b0316836040518060400160405280600381526020016203078360ec1b8152506119cc565b6001600160a01b0382166000908152600560205260409020546111d590826116f5565b6001600160a01b038084166000818152600560209081526040918290209490945580519287168352928201849052825190927f913c760c00daa38ec293d3e6a1ec869b13c4041cfd65a15c8c6401f28ba5e773928290030190a2505050565b600090565b6001600160a01b03918216600090815260026020908152604080832093909416825291909152205460ff1690565b60009081526005602052604090205490565b63f23a6e6160e01b95945050505050565b6001600160a01b0384166112cf5760405162461bcd60e51b81526004018080602001828103825260258152602001806122116025913960400191505060405180910390fd5b6112d7611608565b6001600160a01b0316856001600160a01b031614806112fd57506112fd85610c78611608565b6113385760405162461bcd60e51b81526004018080602001828103825260298152602001806121c16029913960400191505060405180910390fd5b6000611342611608565b905061136281878761135388611ac2565b61135c88611ac2565b8761160c565b6113a9836040518060600160405280602a815260200161228b602a913960008781526001602090815260408083206001600160a01b038d168452909152902054919061165e565b60008581526001602090815260408083206001600160a01b038b811685529252808320939093558716815220546113e090846116f5565b60008581526001602090815260408083206001600160a01b03808b168086529184529382902094909455805188815291820187905280518a84169386169260008051602061212683398151915292908290030190a4610ebb818787878787611b06565b60045461010090046001600160a01b03163314611496576040805162461bcd60e51b815260206004820152600c60248201526b15539055551213d49256915160a21b604482015290519081900360640190fd5b6114aa83836001600160a01b031683611c77565b6001600160a01b0382166000908152600560205260409020546114cd9082611d98565b6001600160a01b039092166000908152600560205260409020919091555050565b60608161151357506040805180820190915260018152600360fc1b6020820152610a2d565b8160005b811561152b57600101600a82049150611517565b6060816001600160401b038111801561154357600080fd5b506040519080825280601f01601f19166020018201604052801561156e576020820181803683370190505b50905060001982015b85156115bc57600a860660300160f81b8282806001900393508151811061159a57fe5b60200101906001600160f81b031916908160001a905350600a86049550611577565b50949350505050565b60606116018383604051806020016040528060008152506040518060200160405280600081525060405180602001604052806000815250611df5565b9392505050565b3390565b61161a868686868686610ebb565b611622610fae565b15610ebb5760405162461bcd60e51b815260040180806020018281038252602c815260200180612195602c913960400191505060405180910390fd5b600081848411156116ed5760405162461bcd60e51b81526004018080602001828103825283818151815260200191508051906020019080838360005b838110156116b257818101518382015260200161169a565b50505050905090810190601f1680156116df5780820380516001836020036101000a031916815260200191505b509250505060405180910390fd5b505050900390565b600082820183811015611601576040805162461bcd60e51b815260206004820152601b60248201527a536166654d6174683a206164646974696f6e206f766572666c6f7760281b604482015290519081900360640190fd5b61175f846001600160a01b0316612019565b15610ebb57836001600160a01b031663bc197c8187878686866040518663ffffffff1660e01b815260040180866001600160a01b03168152602001856001600160a01b03168152602001806020018060200180602001848103845287818151815260200191508051906020019060200280838360005b838110156117ed5781810151838201526020016117d5565b50505050905001848103835286818151815260200191508051906020019060200280838360005b8381101561182c578181015183820152602001611814565b50505050905001848103825285818151815260200191508051906020019080838360005b83811015611868578181015183820152602001611850565b50505050905090810190601f1680156118955780820380516001836020036101000a031916815260200191505b5098505050505050505050602060405180830381600087803b1580156118ba57600080fd5b505af19250505080156118df57506040513d60208110156118da57600080fd5b505160015b611974576118eb612025565b806118f6575061193d565b60405162461bcd60e51b81526020600482018181528351602484015283518493919283926044019190850190808383600083156116b257818101518382015260200161169a565b60405162461bcd60e51b81526004018080602001828103825260348152602001806120ca6034913960400191505060405180910390fd5b6001600160e01b0319811663bc197c8160e01b146119c35760405162461bcd60e51b81526004018080602001828103825260288152602001806120fe6028913960400191505060405180910390fd5b50505050505050565b6001600160a01b038416611a115760405162461bcd60e51b815260040180806020018281038252602181526020018061232f6021913960400191505060405180910390fd5b6000611a1b611608565b9050611a2d8160008761135388611ac2565b60008481526001602090815260408083206001600160a01b0389168452909152902054611a5a90846116f5565b60008581526001602090815260408083206001600160a01b03808b168086529184528285209590955581518981529283018890528151909486169260008051602061212683398151915292908290030190a4611abb81600087878787611b06565b5050505050565b604080516001808252818301909252606091829190602080830190803683370190505090508281600081518110611af557fe5b602090810291909101015292915050565b611b18846001600160a01b0316612019565b15610ebb57836001600160a01b031663f23a6e6187878686866040518663ffffffff1660e01b815260040180866001600160a01b03168152602001856001600160a01b0316815260200184815260200183815260200180602001828103825283818151815260200191508051906020019080838360005b83811015611ba7578181015183820152602001611b8f565b50505050905090810190601f168015611bd45780820380516001836020036101000a031916815260200191505b509650505050505050602060405180830381600087803b158015611bf757600080fd5b505af1925050508015611c1c57506040513d6020811015611c1757600080fd5b505160015b611c28576118eb612025565b6001600160e01b0319811663f23a6e6160e01b146119c35760405162461bcd60e51b81526004018080602001828103825260288152602001806120fe6028913960400191505060405180910390fd5b6001600160a01b038316611cbc5760405162461bcd60e51b81526004018080602001828103825260238152602001806122686023913960400191505060405180910390fd5b6000611cc6611608565b9050611cf681856000611cd887611ac2565b611ce187611ac2565b6040518060200160405280600081525061160c565b611d3d826040518060600160405280602481526020016121716024913960008681526001602090815260408083206001600160a01b038b168452909152902054919061165e565b60008481526001602090815260408083206001600160a01b03808a168086529184528285209590955581518881529283018790528151939490939086169260008051602061212683398151915292908290030190a450505050565b600082821115611def576040805162461bcd60e51b815260206004820152601e60248201527f536166654d6174683a207375627472616374696f6e206f766572666c6f770000604482015290519081900360640190fd5b50900390565b805182518451865188516060948a948a948a948a948a948a9491909201909201909101016001600160401b0381118015611e2e57600080fd5b506040519080825280601f01601f191660200182016040528015611e59576020820181803683370190505b509050806000805b8851811015611eb257888181518110611e7657fe5b602001015160f81c60f81b838380600101945081518110611e9357fe5b60200101906001600160f81b031916908160001a905350600101611e61565b5060005b8751811015611f0757878181518110611ecb57fe5b602001015160f81c60f81b838380600101945081518110611ee857fe5b60200101906001600160f81b031916908160001a905350600101611eb6565b5060005b8651811015611f5c57868181518110611f2057fe5b602001015160f81c60f81b838380600101945081518110611f3d57fe5b60200101906001600160f81b031916908160001a905350600101611f0b565b5060005b8551811015611fb157858181518110611f7557fe5b602001015160f81c60f81b838380600101945081518110611f9257fe5b60200101906001600160f81b031916908160001a905350600101611f60565b5060005b845181101561200657848181518110611fca57fe5b602001015160f81c60f81b838380600101945081518110611fe757fe5b60200101906001600160f81b031916908160001a905350600101611fb5565b50909d9c50505050505050505050505050565b3b151590565b60e01c90565b600060443d101561203557610fb5565b600481823e6308c379a0612049825161201f565b1461205357610fb5565b6040513d600319016004823e80513d6001600160401b0380831160248401831017156120825750505050610fb5565b8284019250825191508082111561209c5750505050610fb5565b503d830160208284010111156120b457505050610fb5565b601f01601f191681016020016040529150509056fe455243313135353a207472616e7366657220746f206e6f6e2045524331313535526563656976657220696d706c656d656e746572455243313135353a204552433131353552656365697665722072656a656374656420746f6b656e73c3d58168c5ae7397731d063d5bbf3d657854427343f4c083240f7aacaa2d0f62455243313135353a2062616c616e636520717565727920666f7220746865207a65726f2061646472657373455243313135353a206275726e20616d6f756e7420657863656564732062616c616e6365455243313135355061757361626c653a20746f6b656e207472616e73666572207768696c6520706175736564455243313135353a2063616c6c6572206973206e6f74206f776e6572206e6f7220617070726f7665645175616e74697a656445524331313535237572693a204e4f4e4558495354454e545f544f4b454e455243313135353a207472616e7366657220746f20746865207a65726f2061646472657373455243313135353a207472616e736665722063616c6c6572206973206e6f74206f776e6572206e6f7220617070726f766564455243313135353a206275726e2066726f6d20746865207a65726f2061646472657373455243313135353a20696e73756666696369656e742062616c616e636520666f72207472616e73666572455243313135353a2073657474696e6720617070726f76616c2073746174757320666f722073656c66455243313135353a206163636f756e747320616e6420696473206c656e677468206d69736d61746368455243313135353a2069647320616e6420616d6f756e7473206c656e677468206d69736d61746368455243313135353a206d696e7420746f20746865207a65726f2061646472657373a2646970667358221220768d5952a1556111234e0ebf5309d90d158942c834e800e75641bbb98313c73164736f6c6343000703003368747470733a2f2f6d657461646174612e7175616e74697a65642e66696e616e63652f7175616e74697a65642f",
  "devdoc": {
    "kind": "dev",
    "methods": {
      "balanceOf(address,uint256)": {
        "details": "See {IERC1155-balanceOf}. Requirements: - `account` cannot be the zero address."
      },
      "balanceOfBatch(address[],uint256[])": {
        "details": "See {IERC1155-balanceOfBatch}. Requirements: - `accounts` and `ids` must have the same length."
      },
      "burn(address,address,uint256)": {
        "details": "mint some amount of tokens. Only callable by token owner"
      },
      "constructor": {
        "details": "Contract initializer."
      },
      "isApprovedForAll(address,address)": {
        "details": "See {IERC1155-isApprovedForAll}."
      },
      "mint(address,address,uint256)": {
        "details": "mint some amount of tokens. Only callable by token owner"
      },
      "paused()": {
        "details": "Returns true if the contract is paused, and false otherwise."
      },
      "safeBatchTransferFrom(address,address,uint256[],uint256[],bytes)": {
        "details": "See {IERC1155-safeBatchTransferFrom}."
      },
      "safeTransferFrom(address,address,uint256,uint256,bytes)": {
        "details": "See {IERC1155-safeTransferFrom}."
      },
      "setApprovalForAll(address,bool)": {
        "details": "See {IERC1155-setApprovalForAll}."
      },
      "setOperator(address)": {
        "details": "Set the address allowed to mint and burn"
      },
      "supportsInterface(bytes4)": {
        "details": "See {IERC165-supportsInterface}. Time complexity O(1), guaranteed to always use less than 30 000 gas."
      },
      "totalBalances(uint256)": {
        "details": "Returns the total balance minted of this type"
      },
      "uri(uint256)": {
        "details": "Returns the metadata URI for this token type"
      }
    },
    "version": 1
  },
  "userdoc": {
    "kind": "user",
    "methods": {},
    "version": 1
  },
  "storageLayout": {
    "storage": [
      {
        "astId": 10474,
        "contract": "src/tokens/QuantizedMultiToken.sol:QuantizedMultiToken",
        "label": "_supportedInterfaces",
        "offset": 0,
        "slot": "0",
        "type": "t_mapping(t_bytes4,t_bool)"
      },
      {
        "astId": 11818,
        "contract": "src/tokens/QuantizedMultiToken.sol:QuantizedMultiToken",
        "label": "_balances",
        "offset": 0,
        "slot": "1",
        "type": "t_mapping(t_uint256,t_mapping(t_address,t_uint256))"
      },
      {
        "astId": 11824,
        "contract": "src/tokens/QuantizedMultiToken.sol:QuantizedMultiToken",
        "label": "_operatorApprovals",
        "offset": 0,
        "slot": "2",
        "type": "t_mapping(t_address,t_mapping(t_address,t_bool))"
      },
      {
        "astId": 11826,
        "contract": "src/tokens/QuantizedMultiToken.sol:QuantizedMultiToken",
        "label": "_uri",
        "offset": 0,
        "slot": "3",
        "type": "t_string_storage"
      },
      {
        "astId": 14467,
        "contract": "src/tokens/QuantizedMultiToken.sol:QuantizedMultiToken",
        "label": "_paused",
        "offset": 0,
        "slot": "4",
        "type": "t_bool"
      },
      {
        "astId": 13940,
        "contract": "src/tokens/QuantizedMultiToken.sol:QuantizedMultiToken",
        "label": "operator",
        "offset": 1,
        "slot": "4",
        "type": "t_address"
      },
      {
        "astId": 13950,
        "contract": "src/tokens/QuantizedMultiToken.sol:QuantizedMultiToken",
        "label": "_totalBalances",
        "offset": 0,
        "slot": "5",
        "type": "t_mapping(t_uint256,t_uint256)"
      }
    ],
    "types": {
      "t_address": {
        "encoding": "inplace",
        "label": "address",
        "numberOfBytes": "20"
      },
      "t_bool": {
        "encoding": "inplace",
        "label": "bool",
        "numberOfBytes": "1"
      },
      "t_bytes4": {
        "encoding": "inplace",
        "label": "bytes4",
        "numberOfBytes": "4"
      },
      "t_mapping(t_address,t_bool)": {
        "encoding": "mapping",
        "key": "t_address",
        "label": "mapping(address => bool)",
        "numberOfBytes": "32",
        "value": "t_bool"
      },
      "t_mapping(t_address,t_mapping(t_address,t_bool))": {
        "encoding": "mapping",
        "key": "t_address",
        "label": "mapping(address => mapping(address => bool))",
        "numberOfBytes": "32",
        "value": "t_mapping(t_address,t_bool)"
      },
      "t_mapping(t_address,t_uint256)": {
        "encoding": "mapping",
        "key": "t_address",
        "label": "mapping(address => uint256)",
        "numberOfBytes": "32",
        "value": "t_uint256"
      },
      "t_mapping(t_bytes4,t_bool)": {
        "encoding": "mapping",
        "key": "t_bytes4",
        "label": "mapping(bytes4 => bool)",
        "numberOfBytes": "32",
        "value": "t_bool"
      },
      "t_mapping(t_uint256,t_mapping(t_address,t_uint256))": {
        "encoding": "mapping",
        "key": "t_uint256",
        "label": "mapping(uint256 => mapping(address => uint256))",
        "numberOfBytes": "32",
        "value": "t_mapping(t_address,t_uint256)"
      },
      "t_mapping(t_uint256,t_uint256)": {
        "encoding": "mapping",
        "key": "t_uint256",
        "label": "mapping(uint256 => uint256)",
        "numberOfBytes": "32",
        "value": "t_uint256"
      },
      "t_string_storage": {
        "encoding": "bytes",
        "label": "string",
        "numberOfBytes": "32"
      },
      "t_uint256": {
        "encoding": "inplace",
        "label": "uint256",
        "numberOfBytes": "32"
      }
    }
  }
}