{
  "address": "0x68F00968b2060Ef125CD79FFc69fF23c114d338C",
  "abi": [
    {
      "anonymous": false,
      "inputs": [
        {
          "indexed": true,
          "internalType": "address",
          "name": "account",
          "type": "address"
        },
        {
          "indexed": false,
          "internalType": "uint256",
          "name": "amount",
          "type": "uint256"
        },
        {
          "indexed": false,
          "internalType": "uint256",
          "name": "minted",
          "type": "uint256"
        }
      ],
      "name": "EthereumQuantized",
      "type": "event"
    },
    {
      "anonymous": false,
      "inputs": [
        {
          "indexed": true,
          "internalType": "address",
          "name": "previousOwner",
          "type": "address"
        },
        {
          "indexed": true,
          "internalType": "address",
          "name": "newOwner",
          "type": "address"
        }
      ],
      "name": "OwnershipTransferred",
      "type": "event"
    },
    {
      "anonymous": false,
      "inputs": [
        {
          "indexed": true,
          "internalType": "address",
          "name": "account",
          "type": "address"
        },
        {
          "indexed": true,
          "internalType": "address",
          "name": "token",
          "type": "address"
        },
        {
          "indexed": true,
          "internalType": "address",
          "name": "quantizedToken",
          "type": "address"
        },
        {
          "indexed": false,
          "internalType": "uint256",
          "name": "amount",
          "type": "uint256"
        },
        {
          "indexed": false,
          "internalType": "uint256",
          "name": "qfee",
          "type": "uint256"
        }
      ],
      "name": "TokenDequantized",
      "type": "event"
    },
    {
      "anonymous": false,
      "inputs": [
        {
          "indexed": true,
          "internalType": "address",
          "name": "account",
          "type": "address"
        },
        {
          "indexed": true,
          "internalType": "address",
          "name": "token",
          "type": "address"
        },
        {
          "indexed": true,
          "internalType": "address",
          "name": "quantizedToken",
          "type": "address"
        },
        {
          "indexed": false,
          "internalType": "uint256",
          "name": "amount",
          "type": "uint256"
        },
        {
          "indexed": false,
          "internalType": "uint256",
          "name": "qfee",
          "type": "uint256"
        }
      ],
      "name": "TokenQuantized",
      "type": "event"
    },
    {
      "inputs": [
        {
          "internalType": "address",
          "name": "token",
          "type": "address"
        },
        {
          "internalType": "uint256",
          "name": "amount",
          "type": "uint256"
        }
      ],
      "name": "dequantize",
      "outputs": [],
      "stateMutability": "nonpayable",
      "type": "function"
    },
    {
      "inputs": [],
      "name": "inithash",
      "outputs": [
        {
          "internalType": "bytes32",
          "name": "",
          "type": "bytes32"
        }
      ],
      "stateMutability": "nonpayable",
      "type": "function"
    },
    {
      "inputs": [
        {
          "internalType": "address",
          "name": "_multitoken",
          "type": "address"
        },
        {
          "internalType": "address",
          "name": "_governor",
          "type": "address"
        },
        {
          "internalType": "address",
          "name": "_factory",
          "type": "address"
        },
        {
          "internalType": "address",
          "name": "_feesTracker",
          "type": "address"
        }
      ],
      "name": "initialize",
      "outputs": [
        {
          "internalType": "address",
          "name": "",
          "type": "address"
        },
        {
          "internalType": "address",
          "name": "",
          "type": "address"
        },
        {
          "internalType": "address",
          "name": "",
          "type": "address"
        },
        {
          "internalType": "address",
          "name": "",
          "type": "address"
        },
        {
          "internalType": "address",
          "name": "",
          "type": "address"
        },
        {
          "internalType": "address",
          "name": "",
          "type": "address"
        },
        {
          "internalType": "bool",
          "name": "",
          "type": "bool"
        }
      ],
      "stateMutability": "payable",
      "type": "function"
    },
    {
      "inputs": [
        {
          "internalType": "address",
          "name": "",
          "type": "address"
        },
        {
          "internalType": "address",
          "name": "",
          "type": "address"
        },
        {
          "internalType": "uint256[]",
          "name": "",
          "type": "uint256[]"
        },
        {
          "internalType": "uint256[]",
          "name": "",
          "type": "uint256[]"
        },
        {
          "internalType": "bytes",
          "name": "",
          "type": "bytes"
        }
      ],
      "name": "onERC1155BatchReceived",
      "outputs": [
        {
          "internalType": "bytes4",
          "name": "",
          "type": "bytes4"
        }
      ],
      "stateMutability": "pure",
      "type": "function"
    },
    {
      "inputs": [
        {
          "internalType": "address",
          "name": "",
          "type": "address"
        },
        {
          "internalType": "address",
          "name": "",
          "type": "address"
        },
        {
          "internalType": "uint256",
          "name": "",
          "type": "uint256"
        },
        {
          "internalType": "uint256",
          "name": "",
          "type": "uint256"
        },
        {
          "internalType": "bytes",
          "name": "",
          "type": "bytes"
        }
      ],
      "name": "onERC1155Received",
      "outputs": [
        {
          "internalType": "bytes4",
          "name": "",
          "type": "bytes4"
        }
      ],
      "stateMutability": "pure",
      "type": "function"
    },
    {
      "inputs": [],
      "name": "owner",
      "outputs": [
        {
          "internalType": "address",
          "name": "",
          "type": "address"
        }
      ],
      "stateMutability": "view",
      "type": "function"
    },
    {
      "inputs": [
        {
          "internalType": "address",
          "name": "token",
          "type": "address"
        },
        {
          "internalType": "uint256",
          "name": "amount",
          "type": "uint256"
        },
        {
          "internalType": "bool",
          "name": "exactDebit",
          "type": "bool"
        }
      ],
      "name": "quantize",
      "outputs": [],
      "stateMutability": "nonpayable",
      "type": "function"
    },
    {
      "inputs": [],
      "name": "renounceOwnership",
      "outputs": [],
      "stateMutability": "nonpayable",
      "type": "function"
    },
    {
      "inputs": [
        {
          "internalType": "bytes4",
          "name": "interfaceId",
          "type": "bytes4"
        }
      ],
      "name": "supportsInterface",
      "outputs": [
        {
          "internalType": "bool",
          "name": "",
          "type": "bool"
        }
      ],
      "stateMutability": "view",
      "type": "function"
    },
    {
      "inputs": [
        {
          "internalType": "address",
          "name": "newOwner",
          "type": "address"
        }
      ],
      "name": "transferOwnership",
      "outputs": [],
      "stateMutability": "nonpayable",
      "type": "function"
    },
    {
      "stateMutability": "payable",
      "type": "receive"
    }
  ],
  "transactionHash": "0xcc4101a793a89ab30b414069fa9e28c48947c35b9472a3721dee243af79f2466",
  "args": [],
  "solcInputHash": "39ea6b62d3ccbb1d057e5219143250c2",
  "bytecode": "0x60806040523480156200001157600080fd5b5060006200001e62000092565b600080546001600160a01b0319166001600160a01b0383169081178255604051929350917f8be0079c531659141344cd1fd0a4f28419497f9722a3daafe3b4186f6b6457e0908290a3506200007a6301ffc9a760e01b62000096565b6200008c630271189760e51b62000096565b6200011e565b3390565b6001600160e01b03198082161415620000f6576040805162461bcd60e51b815260206004820152601c60248201527f4552433136353a20696e76616c696420696e7465726661636520696400000000604482015290519081900360640190fd5b6001600160e01b0319166000908152600160208190526040909120805460ff19169091179055565b611f41806200012e6000396000f3fe6080604052600436106100855760003560e01c806301ffc9a714610154578063715018a61461019c5780637b026d20146101b35780638da5cb5b146101f4578063bc197c8114610225578063d2dfd75914610376578063d4498472146103af578063f23a6e61146103d6578063f2fde38b14610476578063f8c8765e146104a95761014f565b3661014f57600061009a3331620f4240610533565b60025460408051636361ddf360e11b81523360048201526000602482018190526044820185905291519394506001600160a01b039092169263c6c3bbe692606480820193929182900301818387803b1580156100f557600080fd5b505af1158015610109573d6000803e3d6000fd5b50506040805133803182526020820186905282519094507fab50df3d0bc99feb9247962eb5a063c80550dd33628f80de404d89a3ba79868993509081900390910190a250005b600080fd5b34801561016057600080fd5b506101886004803603602081101561017757600080fd5b50356001600160e01b031916610595565b604080519115158252519081900360200190f35b3480156101a857600080fd5b506101b16105b4565b005b3480156101bf57600080fd5b506101b1600480360360608110156101d657600080fd5b506001600160a01b038135169060208101359060400135151561064e565b34801561020057600080fd5b50610209610dcf565b604080516001600160a01b039092168252519081900360200190f35b34801561023157600080fd5b50610359600480360360a081101561024857600080fd5b6001600160a01b038235811692602081013590911691810190606081016040820135600160201b81111561027b57600080fd5b82018360208201111561028d57600080fd5b803590602001918460208302840111600160201b831117156102ae57600080fd5b919390929091602081019035600160201b8111156102cb57600080fd5b8201836020820111156102dd57600080fd5b803590602001918460208302840111600160201b831117156102fe57600080fd5b919390929091602081019035600160201b81111561031b57600080fd5b82018360208201111561032d57600080fd5b803590602001918460018302840111600160201b8311171561034e57600080fd5b509092509050610dde565b604080516001600160e01b03199092168252519081900360200190f35b34801561038257600080fd5b506101b16004803603604081101561039957600080fd5b506001600160a01b038135169060200135610e0b565b3480156103bb57600080fd5b506103c4611261565b60408051918252519081900360200190f35b3480156103e257600080fd5b50610359600480360360a08110156103f957600080fd5b6001600160a01b03823581169260208101359091169160408201359160608101359181019060a081016080820135600160201b81111561043857600080fd5b82018360208201111561044a57600080fd5b803590602001918460018302840111600160201b8311171561046b57600080fd5b509092509050611266565b34801561048257600080fd5b506101b16004803603602081101561049957600080fd5b50356001600160a01b0316611291565b6104e7600480360360808110156104bf57600080fd5b506001600160a01b038135811691602081013582169160408201358116916060013516611381565b604080516001600160a01b0398891681529688166020880152948716868601529286166060860152908516608085015290931660a083015291151560c082015290519081900360e00190f35b6000826105425750600061058f565b8282028284828161054f57fe5b041461058c5760405162461bcd60e51b8152600401808060200182810382526021815260200180611e7b6021913960400191505060405180910390fd5b90505b92915050565b6001600160e01b03191660009081526001602052604090205460ff1690565b6105bc61188a565b6001600160a01b03166105cd610dcf565b6001600160a01b031614610616576040805162461bcd60e51b81526020600482018190526024820152600080516020611e9c833981519152604482015290519081900360640190fd5b600080546040516001600160a01b0390911690600080516020611ebc833981519152908390a3600080546001600160a01b0319169055565b60008211610691576040805162461bcd60e51b815260206004820152600b60248201526a16915493d7d05353d5539560aa1b604482015290519081900360640190fd5b6001600160a01b0383166106db576040805162461bcd60e51b815260206004820152600c60248201526b5a45524f5f4144445245535360a01b604482015290519081900360640190fd5b6004805460408051637e2f2d5960e01b81526001600160a01b0387811694820194909452905160009390921691637e2f2d5991602480820192602092909190829003018186803b15801561072e57600080fd5b505afa158015610742573d6000803e3d6000fd5b505050506040513d602081101561075857600080fd5b50516001600160a01b0316146107a9576040805162461bcd60e51b81526020600482015260116024820152701053149150511657d45550539512569151607a1b604482015290519081900360640190fd5b6000806000610848303388600560009054906101000a90046001600160a01b03166001600160a01b031663eee1ad808b6040518263ffffffff1660e01b815260040180826001600160a01b0316815260200191505060206040518083038186803b15801561081657600080fd5b505afa15801561082a573d6000803e3d6000fd5b505050506040513d602081101561084057600080fd5b50518961188e565b9550955050505092508361085c578061085e565b845b8310156108a7576040805162461bcd60e51b815260206004820152601260248201527124a729aaa32324a1a4a2a72a2faa27a5a2a760711b604482015290519081900360640190fd5b6000600460009054906101000a90046001600160a01b03166001600160a01b0316638e24cd6d886040518263ffffffff1660e01b815260040180826001600160a01b0316815260200191505060206040518083038186803b15801561090b57600080fd5b505afa15801561091f573d6000803e3d6000fd5b505050506040513d602081101561093557600080fd5b505190506001600160a01b038116610ba55773F694c389323C6EB4a221F3f0C9480a2F771Fcf2c63c1ee0a63886040518263ffffffff1660e01b815260040180826001600160a01b0316815260200191505060206040518083038186803b15801561099f57600080fd5b505af41580156109b3573d6000803e3d6000fd5b505050506040513d60208110156109c957600080fd5b50511515600114610a13576040805162461bcd60e51b815260206004820152600f60248201526e1393d7d5539254d5d05417d413d3d3608a1b604482015290519081900360640190fd5b6004805460025460408051634d5b651b60e11b815230948101949094526001600160a01b0391821660248501528a8216604485015251911691639ab6ca369160648083019260209291908290030181600087803b158015610a7357600080fd5b505af1158015610a87573d6000803e3d6000fd5b505050506040513d6020811015610a9d57600080fd5b50516002546005546040805163f945c06960e01b81526001600160a01b038c8116600483015291519495509281169363c6c3bbe6933393600093610b369391169163f945c069916024808301926020929190829003018186803b158015610b0357600080fd5b505afa158015610b17573d6000803e3d6000fd5b505050506040513d6020811015610b2d57600080fd5b50518890610533565b6040518463ffffffff1660e01b815260040180846001600160a01b03168152602001836001600160a01b031681526020018281526020019350505050600060405180830381600087803b158015610b8c57600080fd5b505af1158015610ba0573d6000803e3d6000fd5b505050505b6002546001600160a01b031663c6c3bbe6336000610bc38780610533565b6040518463ffffffff1660e01b815260040180846001600160a01b03168152602001836001600160a01b031681526020018281526020019350505050600060405180830381600087803b158015610c1957600080fd5b505af1158015610c2d573d6000803e3d6000fd5b50505050866001600160a01b03166323b872dd333088610c4d5785610c4f565b875b6040518463ffffffff1660e01b815260040180846001600160a01b03168152602001836001600160a01b031681526020018281526020019350505050602060405180830381600087803b158015610ca557600080fd5b505af1158015610cb9573d6000803e3d6000fd5b505050506040513d6020811015610ccf57600080fd5b50506002546001600160a01b031663c6c3bbe6338988610cef5789610cf3565b878a035b6040518463ffffffff1660e01b815260040180846001600160a01b03168152602001836001600160a01b031681526020018281526020019350505050600060405180830381600087803b158015610d4957600080fd5b505af1158015610d5d573d6000803e3d6000fd5b50505050806001600160a01b0316876001600160a01b0316336001600160a01b03167f90692d3cb69259f2fd8b75dfb27ed073cc1ea27707773c5687b4eca0e7f5edd188610dab5789610daf565b878a035b60408051918252602082018990528051918290030190a450505050505050565b6000546001600160a01b031690565b7fbc197c819b3e337a6f9652dd10becd7eef83032af3b9d958d3d42f669414662198975050505050505050565b6004805460408051637e2f2d5960e01b81526001600160a01b0386811694820194909452905160009390921691637e2f2d5991602480820192602092909190829003018186803b158015610e5e57600080fd5b505afa158015610e72573d6000803e3d6000fd5b505050506040513d6020811015610e8857600080fd5b50516001600160a01b031614610ed8576040805162461bcd60e51b815260206004820152601060248201526f10531150511657d4555053951256915160821b604482015290519081900360640190fd5b6000600460009054906101000a90046001600160a01b03166001600160a01b0316638e24cd6d846040518263ffffffff1660e01b815260040180826001600160a01b0316815260200191505060206040518083038186803b158015610f3c57600080fd5b505afa158015610f50573d6000803e3d6000fd5b505050506040513d6020811015610f6657600080fd5b505190506001600160a01b038116610fb5576040805162461bcd60e51b815260206004820152600d60248201526c1393d517d45550539512569151609a1b604482015290519081900360640190fd5b6000806000611022303388600560009054906101000a90046001600160a01b03166001600160a01b031663eee1ad808b6040518263ffffffff1660e01b815260040180826001600160a01b0316815260200191505060206040518083038186803b15801561081657600080fd5b5094505093509350508482101561106a5760405162461bcd60e51b8152600401808060200182810382526024815260200180611e576024913960400191505060405180910390fd5b808310156110a95760405162461bcd60e51b8152600401808060200182810382526030815260200180611edc6030913960400191505060405180910390fd5b60025460408051633dae446f60e21b81523360048201526001600160a01b038981166024830152604482018990529151919092169163f6b911bc91606480830192600092919082900301818387803b15801561110457600080fd5b505af1158015611118573d6000803e3d6000fd5b505060025460408051633dae446f60e21b81523360048201526000602482018190526044820187905291516001600160a01b03909316945063f6b911bc93506064808201939182900301818387803b15801561117357600080fd5b505af1158015611187573d6000803e3d6000fd5b5050604080516323b872dd60e01b81523060048201523360248201526044810189905290516001600160a01b038a1693506323b872dd925060648083019260209291908290030181600087803b1580156111e057600080fd5b505af11580156111f4573d6000803e3d6000fd5b505050506040513d602081101561120a57600080fd5b5050604080518681526020810183905281516001600160a01b0380881693908a169233927f98d2a1f5ced9801fd690c56428aaa74fe581926e208f2f13466c9a1752ad38bb929181900390910190a4505050505050565b600090565b7ff23a6e612e1ff4830e658fe43f4e3cb4a5f8170bd5d9e69fb5d7a7fa9e4fdf979695505050505050565b61129961188a565b6001600160a01b03166112aa610dcf565b6001600160a01b0316146112f3576040805162461bcd60e51b81526020600482018190526024820152600080516020611e9c833981519152604482015290519081900360640190fd5b6001600160a01b0381166113385760405162461bcd60e51b8152600401808060200182810382526026815260200180611e316026913960400191505060405180910390fd5b600080546040516001600160a01b0380851693921691600080516020611ebc83398151915291a3600080546001600160a01b0319166001600160a01b0392909216919091179055565b6002546000908190819081908190819081906001600160a01b0316156114c3576002546003546004805460055460408051638e24cd6d60e01b8152600094810194909452516001600160a01b0395861695948516949283169391909216918391638e24cd6d916024808301926020929190829003018186803b15801561140657600080fd5b505afa15801561141a573d6000803e3d6000fd5b505050506040513d602081101561143057600080fd5b50516004805460408051638e24cd6d60e01b8152600193810193909352516001600160a01b0390911691638e24cd6d916024808301926020929190829003018186803b15801561147f57600080fd5b505afa158015611493573d6000803e3d6000fd5b505050506040513d60208110156114a957600080fd5b5051949b509299509097509550935091506000905061187c565b600280546001600160a01b03199081166001600160a01b038e811691909117928390556003805483168e83161790556004805483168d8316178155600580549093168c8316179092556040805163b3ab15fb60e01b815230938101939093525192169163b3ab15fb9160248082019260009290919082900301818387803b15801561154d57600080fd5b505af1158015611561573d6000803e3d6000fd5b5050600480546040805163b3ab15fb60e01b81523093810193909352516001600160a01b03909116935063b3ab15fb9250602480830192600092919082900301818387803b1580156115b257600080fd5b505af11580156115c6573d6000803e3d6000fd5b50506005546040805163b3ab15fb60e01b81526001600160a01b038f81166004830152915191909216935063b3ab15fb9250602480830192600092919082900301818387803b15801561161857600080fd5b505af115801561162c573d6000803e3d6000fd5b50506004805460025460408051634d5b651b60e11b815230948101949094526001600160a01b039182166024850152600060448501819052905190955091169250639ab6ca369160648082019260209290919082900301818787803b15801561169457600080fd5b505af11580156116a8573d6000803e3d6000fd5b505050506040513d60208110156116be57600080fd5b50516004805460025460408051634d5b651b60e11b815230948101949094526001600160a01b0391821660248501526001604485015251939450600093911691639ab6ca3691606480830192602092919082900301818787803b15801561172457600080fd5b505af1158015611738573d6000803e3d6000fd5b505050506040513d602081101561174e57600080fd5b50516002549091506001600160a01b031663c6c3bbe661176c610dcf565b604080516001600160e01b031960e085901b1681526001600160a01b0390921660048301526001602483015261c350604483015251606480830192600092919082900301818387803b1580156117c157600080fd5b505af11580156117d5573d6000803e3d6000fd5b505060025460408051636361ddf360e11b81523060048201526001602482015261c350604482015290516001600160a01b03909216935063c6c3bbe6925060648082019260009290919082900301818387803b15801561183457600080fd5b505af1158015611848573d6000803e3d6000fd5b50506002546003546004546005546001600160a01b039384169e509183169c5082169a501697509295509093506001925050505b949950949992975094509450565b3390565b600080600080600080886001600160a01b03166370a082318b6040518263ffffffff1660e01b815260040180826001600160a01b0316815260200191505060206040518083038186803b1580156118e457600080fd5b505afa1580156118f8573d6000803e3d6000fd5b505050506040513d602081101561190e57600080fd5b505160408051627eeac760e11b81526001600160a01b038d81166004830152600060248301529151929850908d169162fdd58e91604480820192602092909190829003018186803b15801561196257600080fd5b505afa158015611976573d6000803e3d6000fd5b505050506040513d602081101561198c57600080fd5b505160408051627eeac760e11b81526001600160a01b038d811660048301528c811660248301529151929750908d169162fdd58e91604480820192602092909190829003018186803b1580156119e157600080fd5b505afa1580156119f5573d6000803e3d6000fd5b505050506040513d6020811015611a0b57600080fd5b50519350878781611a1857fe5b049250611a258984611a39565b915082870190509550955095509550955095565b6000611a458383611a53565b5050620f4240029392505050565b600080600080737a250d5630b4cf539739df2c5dacb4c659f2488d9050611af3737a250d5630b4cf539739df2c5dacb4c659f2488d87836001600160a01b031663ad5c46486040518163ffffffff1660e01b815260040160206040518083038186803b158015611ac257600080fd5b505afa158015611ad6573d6000803e3d6000fd5b505050506040513d6020811015611aec57600080fd5b5051611b0d565b9093509150611b03858484611bd4565b9350509250925092565b6000806000611b1c8585611c8e565b509050600080611b2d888888611d75565b6001600160a01b0316630902f1ac6040518163ffffffff1660e01b815260040160606040518083038186803b158015611b6557600080fd5b505afa158015611b79573d6000803e3d6000fd5b505050506040513d6060811015611b8f57600080fd5b5080516020909101516001600160701b0391821693501690506001600160a01b0387811690841614611bc2578082611bc5565b81815b90999098509650505050505050565b6000808411611c19576040805162461bcd60e51b815260206004820152600c60248201526b50726963653a20507269636560a01b604482015290519081900360640190fd5b600083118015611c295750600082115b611c7a576040805162461bcd60e51b815260206004820152601d60248201527f50726963653a20494e53554646494349454e545f4c4951554944495459000000604482015290519081900360640190fd5b8282850281611c8557fe5b04949350505050565b600080826001600160a01b0316846001600160a01b03161415611cf5576040805162461bcd60e51b815260206004820152601a60248201527950726963653a204944454e544943414c5f41444452455353455360301b604482015290519081900360640190fd5b826001600160a01b0316846001600160a01b031610611d15578284611d18565b83835b90925090506001600160a01b038216611d6e576040805162461bcd60e51b815260206004820152601360248201527250726963653a205a45524f5f4144445245535360681b604482015290519081900360640190fd5b9250929050565b6000806000611d848585611c8e565b604080516001600160601b0319606094851b811660208084019190915293851b81166034830152825160288184030181526048830184528051908501206001600160f81b031960688401529a90941b9093166069840152607d8301989098527f96e8ac4277198ff8b6f785478aa9a39f403cb768dd02cbee326c3e7da348845f609d808401919091528851808403909101815260bd90920190975280519601959095209594505050505056fe4f776e61626c653a206e6577206f776e657220697320746865207a65726f2061646472657373496e73756666696369656e74207175616e74697a656420746f6b656e2062616c616e6365536166654d6174683a206d756c7469706c69636174696f6e206f766572666c6f774f776e61626c653a2063616c6c6572206973206e6f7420746865206f776e65728be0079c531659141344cd1fd0a4f28419497f9722a3daafe3b4186f6b6457e0496e73756666696369656e74207175616e74612062616c616e636520746f2064657175616e74697a6520746f6b656e2ea26469706673582212200fe1e7c53a16e1f30488e4198245de087a1f813249e5d8b55ea99b93b30bdeaf64736f6c63430007030033",
  "deployedBytecode": "0x6080604052600436106100855760003560e01c806301ffc9a714610154578063715018a61461019c5780637b026d20146101b35780638da5cb5b146101f4578063bc197c8114610225578063d2dfd75914610376578063d4498472146103af578063f23a6e61146103d6578063f2fde38b14610476578063f8c8765e146104a95761014f565b3661014f57600061009a3331620f4240610533565b60025460408051636361ddf360e11b81523360048201526000602482018190526044820185905291519394506001600160a01b039092169263c6c3bbe692606480820193929182900301818387803b1580156100f557600080fd5b505af1158015610109573d6000803e3d6000fd5b50506040805133803182526020820186905282519094507fab50df3d0bc99feb9247962eb5a063c80550dd33628f80de404d89a3ba79868993509081900390910190a250005b600080fd5b34801561016057600080fd5b506101886004803603602081101561017757600080fd5b50356001600160e01b031916610595565b604080519115158252519081900360200190f35b3480156101a857600080fd5b506101b16105b4565b005b3480156101bf57600080fd5b506101b1600480360360608110156101d657600080fd5b506001600160a01b038135169060208101359060400135151561064e565b34801561020057600080fd5b50610209610dcf565b604080516001600160a01b039092168252519081900360200190f35b34801561023157600080fd5b50610359600480360360a081101561024857600080fd5b6001600160a01b038235811692602081013590911691810190606081016040820135600160201b81111561027b57600080fd5b82018360208201111561028d57600080fd5b803590602001918460208302840111600160201b831117156102ae57600080fd5b919390929091602081019035600160201b8111156102cb57600080fd5b8201836020820111156102dd57600080fd5b803590602001918460208302840111600160201b831117156102fe57600080fd5b919390929091602081019035600160201b81111561031b57600080fd5b82018360208201111561032d57600080fd5b803590602001918460018302840111600160201b8311171561034e57600080fd5b509092509050610dde565b604080516001600160e01b03199092168252519081900360200190f35b34801561038257600080fd5b506101b16004803603604081101561039957600080fd5b506001600160a01b038135169060200135610e0b565b3480156103bb57600080fd5b506103c4611261565b60408051918252519081900360200190f35b3480156103e257600080fd5b50610359600480360360a08110156103f957600080fd5b6001600160a01b03823581169260208101359091169160408201359160608101359181019060a081016080820135600160201b81111561043857600080fd5b82018360208201111561044a57600080fd5b803590602001918460018302840111600160201b8311171561046b57600080fd5b509092509050611266565b34801561048257600080fd5b506101b16004803603602081101561049957600080fd5b50356001600160a01b0316611291565b6104e7600480360360808110156104bf57600080fd5b506001600160a01b038135811691602081013582169160408201358116916060013516611381565b604080516001600160a01b0398891681529688166020880152948716868601529286166060860152908516608085015290931660a083015291151560c082015290519081900360e00190f35b6000826105425750600061058f565b8282028284828161054f57fe5b041461058c5760405162461bcd60e51b8152600401808060200182810382526021815260200180611e7b6021913960400191505060405180910390fd5b90505b92915050565b6001600160e01b03191660009081526001602052604090205460ff1690565b6105bc61188a565b6001600160a01b03166105cd610dcf565b6001600160a01b031614610616576040805162461bcd60e51b81526020600482018190526024820152600080516020611e9c833981519152604482015290519081900360640190fd5b600080546040516001600160a01b0390911690600080516020611ebc833981519152908390a3600080546001600160a01b0319169055565b60008211610691576040805162461bcd60e51b815260206004820152600b60248201526a16915493d7d05353d5539560aa1b604482015290519081900360640190fd5b6001600160a01b0383166106db576040805162461bcd60e51b815260206004820152600c60248201526b5a45524f5f4144445245535360a01b604482015290519081900360640190fd5b6004805460408051637e2f2d5960e01b81526001600160a01b0387811694820194909452905160009390921691637e2f2d5991602480820192602092909190829003018186803b15801561072e57600080fd5b505afa158015610742573d6000803e3d6000fd5b505050506040513d602081101561075857600080fd5b50516001600160a01b0316146107a9576040805162461bcd60e51b81526020600482015260116024820152701053149150511657d45550539512569151607a1b604482015290519081900360640190fd5b6000806000610848303388600560009054906101000a90046001600160a01b03166001600160a01b031663eee1ad808b6040518263ffffffff1660e01b815260040180826001600160a01b0316815260200191505060206040518083038186803b15801561081657600080fd5b505afa15801561082a573d6000803e3d6000fd5b505050506040513d602081101561084057600080fd5b50518961188e565b9550955050505092508361085c578061085e565b845b8310156108a7576040805162461bcd60e51b815260206004820152601260248201527124a729aaa32324a1a4a2a72a2faa27a5a2a760711b604482015290519081900360640190fd5b6000600460009054906101000a90046001600160a01b03166001600160a01b0316638e24cd6d886040518263ffffffff1660e01b815260040180826001600160a01b0316815260200191505060206040518083038186803b15801561090b57600080fd5b505afa15801561091f573d6000803e3d6000fd5b505050506040513d602081101561093557600080fd5b505190506001600160a01b038116610ba55773__$3da78ec3a62b14acb1881534090472f399$__63c1ee0a63886040518263ffffffff1660e01b815260040180826001600160a01b0316815260200191505060206040518083038186803b15801561099f57600080fd5b505af41580156109b3573d6000803e3d6000fd5b505050506040513d60208110156109c957600080fd5b50511515600114610a13576040805162461bcd60e51b815260206004820152600f60248201526e1393d7d5539254d5d05417d413d3d3608a1b604482015290519081900360640190fd5b6004805460025460408051634d5b651b60e11b815230948101949094526001600160a01b0391821660248501528a8216604485015251911691639ab6ca369160648083019260209291908290030181600087803b158015610a7357600080fd5b505af1158015610a87573d6000803e3d6000fd5b505050506040513d6020811015610a9d57600080fd5b50516002546005546040805163f945c06960e01b81526001600160a01b038c8116600483015291519495509281169363c6c3bbe6933393600093610b369391169163f945c069916024808301926020929190829003018186803b158015610b0357600080fd5b505afa158015610b17573d6000803e3d6000fd5b505050506040513d6020811015610b2d57600080fd5b50518890610533565b6040518463ffffffff1660e01b815260040180846001600160a01b03168152602001836001600160a01b031681526020018281526020019350505050600060405180830381600087803b158015610b8c57600080fd5b505af1158015610ba0573d6000803e3d6000fd5b505050505b6002546001600160a01b031663c6c3bbe6336000610bc38780610533565b6040518463ffffffff1660e01b815260040180846001600160a01b03168152602001836001600160a01b031681526020018281526020019350505050600060405180830381600087803b158015610c1957600080fd5b505af1158015610c2d573d6000803e3d6000fd5b50505050866001600160a01b03166323b872dd333088610c4d5785610c4f565b875b6040518463ffffffff1660e01b815260040180846001600160a01b03168152602001836001600160a01b031681526020018281526020019350505050602060405180830381600087803b158015610ca557600080fd5b505af1158015610cb9573d6000803e3d6000fd5b505050506040513d6020811015610ccf57600080fd5b50506002546001600160a01b031663c6c3bbe6338988610cef5789610cf3565b878a035b6040518463ffffffff1660e01b815260040180846001600160a01b03168152602001836001600160a01b031681526020018281526020019350505050600060405180830381600087803b158015610d4957600080fd5b505af1158015610d5d573d6000803e3d6000fd5b50505050806001600160a01b0316876001600160a01b0316336001600160a01b03167f90692d3cb69259f2fd8b75dfb27ed073cc1ea27707773c5687b4eca0e7f5edd188610dab5789610daf565b878a035b60408051918252602082018990528051918290030190a450505050505050565b6000546001600160a01b031690565b7fbc197c819b3e337a6f9652dd10becd7eef83032af3b9d958d3d42f669414662198975050505050505050565b6004805460408051637e2f2d5960e01b81526001600160a01b0386811694820194909452905160009390921691637e2f2d5991602480820192602092909190829003018186803b158015610e5e57600080fd5b505afa158015610e72573d6000803e3d6000fd5b505050506040513d6020811015610e8857600080fd5b50516001600160a01b031614610ed8576040805162461bcd60e51b815260206004820152601060248201526f10531150511657d4555053951256915160821b604482015290519081900360640190fd5b6000600460009054906101000a90046001600160a01b03166001600160a01b0316638e24cd6d846040518263ffffffff1660e01b815260040180826001600160a01b0316815260200191505060206040518083038186803b158015610f3c57600080fd5b505afa158015610f50573d6000803e3d6000fd5b505050506040513d6020811015610f6657600080fd5b505190506001600160a01b038116610fb5576040805162461bcd60e51b815260206004820152600d60248201526c1393d517d45550539512569151609a1b604482015290519081900360640190fd5b6000806000611022303388600560009054906101000a90046001600160a01b03166001600160a01b031663eee1ad808b6040518263ffffffff1660e01b815260040180826001600160a01b0316815260200191505060206040518083038186803b15801561081657600080fd5b5094505093509350508482101561106a5760405162461bcd60e51b8152600401808060200182810382526024815260200180611e576024913960400191505060405180910390fd5b808310156110a95760405162461bcd60e51b8152600401808060200182810382526030815260200180611edc6030913960400191505060405180910390fd5b60025460408051633dae446f60e21b81523360048201526001600160a01b038981166024830152604482018990529151919092169163f6b911bc91606480830192600092919082900301818387803b15801561110457600080fd5b505af1158015611118573d6000803e3d6000fd5b505060025460408051633dae446f60e21b81523360048201526000602482018190526044820187905291516001600160a01b03909316945063f6b911bc93506064808201939182900301818387803b15801561117357600080fd5b505af1158015611187573d6000803e3d6000fd5b5050604080516323b872dd60e01b81523060048201523360248201526044810189905290516001600160a01b038a1693506323b872dd925060648083019260209291908290030181600087803b1580156111e057600080fd5b505af11580156111f4573d6000803e3d6000fd5b505050506040513d602081101561120a57600080fd5b5050604080518681526020810183905281516001600160a01b0380881693908a169233927f98d2a1f5ced9801fd690c56428aaa74fe581926e208f2f13466c9a1752ad38bb929181900390910190a4505050505050565b600090565b7ff23a6e612e1ff4830e658fe43f4e3cb4a5f8170bd5d9e69fb5d7a7fa9e4fdf979695505050505050565b61129961188a565b6001600160a01b03166112aa610dcf565b6001600160a01b0316146112f3576040805162461bcd60e51b81526020600482018190526024820152600080516020611e9c833981519152604482015290519081900360640190fd5b6001600160a01b0381166113385760405162461bcd60e51b8152600401808060200182810382526026815260200180611e316026913960400191505060405180910390fd5b600080546040516001600160a01b0380851693921691600080516020611ebc83398151915291a3600080546001600160a01b0319166001600160a01b0392909216919091179055565b6002546000908190819081908190819081906001600160a01b0316156114c3576002546003546004805460055460408051638e24cd6d60e01b8152600094810194909452516001600160a01b0395861695948516949283169391909216918391638e24cd6d916024808301926020929190829003018186803b15801561140657600080fd5b505afa15801561141a573d6000803e3d6000fd5b505050506040513d602081101561143057600080fd5b50516004805460408051638e24cd6d60e01b8152600193810193909352516001600160a01b0390911691638e24cd6d916024808301926020929190829003018186803b15801561147f57600080fd5b505afa158015611493573d6000803e3d6000fd5b505050506040513d60208110156114a957600080fd5b5051949b509299509097509550935091506000905061187c565b600280546001600160a01b03199081166001600160a01b038e811691909117928390556003805483168e83161790556004805483168d8316178155600580549093168c8316179092556040805163b3ab15fb60e01b815230938101939093525192169163b3ab15fb9160248082019260009290919082900301818387803b15801561154d57600080fd5b505af1158015611561573d6000803e3d6000fd5b5050600480546040805163b3ab15fb60e01b81523093810193909352516001600160a01b03909116935063b3ab15fb9250602480830192600092919082900301818387803b1580156115b257600080fd5b505af11580156115c6573d6000803e3d6000fd5b50506005546040805163b3ab15fb60e01b81526001600160a01b038f81166004830152915191909216935063b3ab15fb9250602480830192600092919082900301818387803b15801561161857600080fd5b505af115801561162c573d6000803e3d6000fd5b50506004805460025460408051634d5b651b60e11b815230948101949094526001600160a01b039182166024850152600060448501819052905190955091169250639ab6ca369160648082019260209290919082900301818787803b15801561169457600080fd5b505af11580156116a8573d6000803e3d6000fd5b505050506040513d60208110156116be57600080fd5b50516004805460025460408051634d5b651b60e11b815230948101949094526001600160a01b0391821660248501526001604485015251939450600093911691639ab6ca3691606480830192602092919082900301818787803b15801561172457600080fd5b505af1158015611738573d6000803e3d6000fd5b505050506040513d602081101561174e57600080fd5b50516002549091506001600160a01b031663c6c3bbe661176c610dcf565b604080516001600160e01b031960e085901b1681526001600160a01b0390921660048301526001602483015261c350604483015251606480830192600092919082900301818387803b1580156117c157600080fd5b505af11580156117d5573d6000803e3d6000fd5b505060025460408051636361ddf360e11b81523060048201526001602482015261c350604482015290516001600160a01b03909216935063c6c3bbe6925060648082019260009290919082900301818387803b15801561183457600080fd5b505af1158015611848573d6000803e3d6000fd5b50506002546003546004546005546001600160a01b039384169e509183169c5082169a501697509295509093506001925050505b949950949992975094509450565b3390565b600080600080600080886001600160a01b03166370a082318b6040518263ffffffff1660e01b815260040180826001600160a01b0316815260200191505060206040518083038186803b1580156118e457600080fd5b505afa1580156118f8573d6000803e3d6000fd5b505050506040513d602081101561190e57600080fd5b505160408051627eeac760e11b81526001600160a01b038d81166004830152600060248301529151929850908d169162fdd58e91604480820192602092909190829003018186803b15801561196257600080fd5b505afa158015611976573d6000803e3d6000fd5b505050506040513d602081101561198c57600080fd5b505160408051627eeac760e11b81526001600160a01b038d811660048301528c811660248301529151929750908d169162fdd58e91604480820192602092909190829003018186803b1580156119e157600080fd5b505afa1580156119f5573d6000803e3d6000fd5b505050506040513d6020811015611a0b57600080fd5b50519350878781611a1857fe5b049250611a258984611a39565b915082870190509550955095509550955095565b6000611a458383611a53565b5050620f4240029392505050565b600080600080737a250d5630b4cf539739df2c5dacb4c659f2488d9050611af3737a250d5630b4cf539739df2c5dacb4c659f2488d87836001600160a01b031663ad5c46486040518163ffffffff1660e01b815260040160206040518083038186803b158015611ac257600080fd5b505afa158015611ad6573d6000803e3d6000fd5b505050506040513d6020811015611aec57600080fd5b5051611b0d565b9093509150611b03858484611bd4565b9350509250925092565b6000806000611b1c8585611c8e565b509050600080611b2d888888611d75565b6001600160a01b0316630902f1ac6040518163ffffffff1660e01b815260040160606040518083038186803b158015611b6557600080fd5b505afa158015611b79573d6000803e3d6000fd5b505050506040513d6060811015611b8f57600080fd5b5080516020909101516001600160701b0391821693501690506001600160a01b0387811690841614611bc2578082611bc5565b81815b90999098509650505050505050565b6000808411611c19576040805162461bcd60e51b815260206004820152600c60248201526b50726963653a20507269636560a01b604482015290519081900360640190fd5b600083118015611c295750600082115b611c7a576040805162461bcd60e51b815260206004820152601d60248201527f50726963653a20494e53554646494349454e545f4c4951554944495459000000604482015290519081900360640190fd5b8282850281611c8557fe5b04949350505050565b600080826001600160a01b0316846001600160a01b03161415611cf5576040805162461bcd60e51b815260206004820152601a60248201527950726963653a204944454e544943414c5f41444452455353455360301b604482015290519081900360640190fd5b826001600160a01b0316846001600160a01b031610611d15578284611d18565b83835b90925090506001600160a01b038216611d6e576040805162461bcd60e51b815260206004820152601360248201527250726963653a205a45524f5f4144445245535360681b604482015290519081900360640190fd5b9250929050565b6000806000611d848585611c8e565b604080516001600160601b0319606094851b811660208084019190915293851b81166034830152825160288184030181526048830184528051908501206001600160f81b031960688401529a90941b9093166069840152607d8301989098527f96e8ac4277198ff8b6f785478aa9a39f403cb768dd02cbee326c3e7da348845f609d808401919091528851808403909101815260bd90920190975280519601959095209594505050505056fe4f776e61626c653a206e6577206f776e657220697320746865207a65726f2061646472657373496e73756666696369656e74207175616e74697a656420746f6b656e2062616c616e6365536166654d6174683a206d756c7469706c69636174696f6e206f766572666c6f774f776e61626c653a2063616c6c6572206973206e6f7420746865206f776e65728be0079c531659141344cd1fd0a4f28419497f9722a3daafe3b4186f6b6457e0496e73756666696369656e74207175616e74612062616c616e636520746f2064657175616e74697a6520746f6b656e2ea26469706673582212200fe1e7c53a16e1f30488e4198245de087a1f813249e5d8b55ea99b93b30bdeaf64736f6c63430007030033",
  "libraries": {
    "Strings": "0xE637863cb9F667C43949035245455a6a85cacd39",
    "SafeMath": "0x2d567Adf93AD4bE32453D06E35B1E1051E61B8EB",
    "QuantizedLib": "0xF694c389323C6EB4a221F3f0C9480a2F771Fcf2c",
    "Create2Deployer": "0x90f34250AD59b0B2c24b0DB8fb0a196828A55A2f"
  },
  "devdoc": {
    "kind": "dev",
    "methods": {
      "dequantize(address,uint256)": {
        "details": "Dequantize this token to erc20."
      },
      "onERC1155BatchReceived(address,address,uint256[],uint256[],bytes)": {
        "details": "called when erc1155 received"
      },
      "owner()": {
        "details": "Returns the address of the current owner."
      },
      "quantize(address,uint256,bool)": {
        "details": "Quantize this token (turn it into a mapped Quantized token type as well as a CREATE2-deployed ERC20 contract mapped to the token type.)"
      },
      "renounceOwnership()": {
        "details": "Leaves the contract without owner. It will not be possible to call `onlyOwner` functions anymore. Can only be called by the current owner. NOTE: Renouncing ownership will leave the contract without an owner, thereby removing any functionality that is only available to the owner."
      },
      "supportsInterface(bytes4)": {
        "details": "See {IERC165-supportsInterface}. Time complexity O(1), guaranteed to always use less than 30 000 gas."
      },
      "transferOwnership(address)": {
        "details": "Transfers ownership of the contract to a new account (`newOwner`). Can only be called by the current owner."
      }
    },
    "version": 1
  },
  "userdoc": {
    "kind": "user",
    "methods": {},
    "version": 1
  },
  "storageLayout": {
    "storage": [
      {
        "astId": 9401,
        "contract": "src/Quantized.sol:Quantized",
        "label": "_owner",
        "offset": 0,
        "slot": "0",
        "type": "t_address"
      },
      {
        "astId": 10474,
        "contract": "src/Quantized.sol:Quantized",
        "label": "_supportedInterfaces",
        "offset": 0,
        "slot": "1",
        "type": "t_mapping(t_bytes4,t_bool)"
      },
      {
        "astId": 8785,
        "contract": "src/Quantized.sol:Quantized",
        "label": "multitoken",
        "offset": 0,
        "slot": "2",
        "type": "t_address"
      },
      {
        "astId": 8787,
        "contract": "src/Quantized.sol:Quantized",
        "label": "governor",
        "offset": 0,
        "slot": "3",
        "type": "t_address"
      },
      {
        "astId": 8789,
        "contract": "src/Quantized.sol:Quantized",
        "label": "erc20factory",
        "offset": 0,
        "slot": "4",
        "type": "t_address"
      },
      {
        "astId": 8791,
        "contract": "src/Quantized.sol:Quantized",
        "label": "feesTracker",
        "offset": 0,
        "slot": "5",
        "type": "t_address"
      },
      {
        "astId": 8793,
        "contract": "src/Quantized.sol:Quantized",
        "label": "version",
        "offset": 0,
        "slot": "6",
        "type": "t_uint256"
      }
    ],
    "types": {
      "t_address": {
        "encoding": "inplace",
        "label": "address",
        "numberOfBytes": "20"
      },
      "t_bool": {
        "encoding": "inplace",
        "label": "bool",
        "numberOfBytes": "1"
      },
      "t_bytes4": {
        "encoding": "inplace",
        "label": "bytes4",
        "numberOfBytes": "4"
      },
      "t_mapping(t_bytes4,t_bool)": {
        "encoding": "mapping",
        "key": "t_bytes4",
        "label": "mapping(bytes4 => bool)",
        "numberOfBytes": "32",
        "value": "t_bool"
      },
      "t_uint256": {
        "encoding": "inplace",
        "label": "uint256",
        "numberOfBytes": "32"
      }
    }
  }
}