{
  "address": "0x8a6A61FB6ff506c35675f06742316c8928337bE8",
  "abi": [
    {
      "inputs": [],
      "name": "initialize",
      "outputs": [],
      "stateMutability": "nonpayable",
      "type": "function"
    }
  ],
  "transactionHash": "0x20674c073e7fb468e9b8a7de4a27a9fc9cf3c6e60831a3105a1ea1bdbeeb6655",
  "args": [],
  "solcInputHash": "af2f90b4513741b2a801c08c9ed6ab4c",
  "bytecode": "0x608060405234801561001057600080fd5b5060e68061001f6000396000f3fe6080604052348015600f57600080fd5b506004361060285760003560e01c80638129fc1c14602d575b600080fd5b60336035565b005b6000603d607e565b90506001600160a01b0381166067576001600160a01b03600080516020609183398151915255607b565b336001600160a01b03821614607b57600080fd5b50565b6000805160206091833981519152549056feb53127684a568b3173ae13b9f8a6016e243e63b6e8ee1178d6a717850b5d6103a2646970667358221220eacad744cba7117c9affebe461ebebe1eec98f26637995a3c635e41f372cd61464736f6c63430007030033",
  "devdoc": {
    "kind": "dev",
    "methods": {},
    "version": 1
  },
  "userdoc": {
    "kind": "user",
    "methods": {},
    "version": 1
  },
  "storageLayout": {
    "storage": [],
    "types": null
  }
}