{
  "address": "0xf3581c39D376f2e3E971798DF843c3e374A51C35",
  "abi": [
    {
      "inputs": [],
      "stateMutability": "nonpayable",
      "type": "constructor"
    },
    {
      "anonymous": false,
      "inputs": [
        {
          "indexed": true,
          "internalType": "address",
          "name": "account",
          "type": "address"
        },
        {
          "indexed": true,
          "internalType": "address",
          "name": "operator",
          "type": "address"
        },
        {
          "indexed": false,
          "internalType": "bool",
          "name": "approved",
          "type": "bool"
        }
      ],
      "name": "ApprovalForAll",
      "type": "event"
    },
    {
      "anonymous": false,
      "inputs": [
        {
          "indexed": true,
          "internalType": "address",
          "name": "dequantizer",
          "type": "address"
        },
        {
          "indexed": true,
          "internalType": "address",
          "name": "token",
          "type": "address"
        },
        {
          "indexed": false,
          "internalType": "uint256",
          "name": "amount",
          "type": "uint256"
        }
      ],
      "name": "Dequantized",
      "type": "event"
    },
    {
      "anonymous": false,
      "inputs": [
        {
          "indexed": true,
          "internalType": "address",
          "name": "previousOwner",
          "type": "address"
        },
        {
          "indexed": true,
          "internalType": "address",
          "name": "newOwner",
          "type": "address"
        }
      ],
      "name": "OwnershipTransferred",
      "type": "event"
    },
    {
      "anonymous": false,
      "inputs": [
        {
          "indexed": false,
          "internalType": "address",
          "name": "account",
          "type": "address"
        }
      ],
      "name": "Paused",
      "type": "event"
    },
    {
      "anonymous": false,
      "inputs": [
        {
          "indexed": true,
          "internalType": "address",
          "name": "quantizer",
          "type": "address"
        },
        {
          "indexed": true,
          "internalType": "address",
          "name": "token",
          "type": "address"
        },
        {
          "indexed": false,
          "internalType": "uint256",
          "name": "amount",
          "type": "uint256"
        }
      ],
      "name": "Quantized",
      "type": "event"
    },
    {
      "anonymous": false,
      "inputs": [
        {
          "indexed": true,
          "internalType": "address",
          "name": "operator",
          "type": "address"
        },
        {
          "indexed": true,
          "internalType": "address",
          "name": "from",
          "type": "address"
        },
        {
          "indexed": true,
          "internalType": "address",
          "name": "to",
          "type": "address"
        },
        {
          "indexed": false,
          "internalType": "uint256[]",
          "name": "ids",
          "type": "uint256[]"
        },
        {
          "indexed": false,
          "internalType": "uint256[]",
          "name": "values",
          "type": "uint256[]"
        }
      ],
      "name": "TransferBatch",
      "type": "event"
    },
    {
      "anonymous": false,
      "inputs": [
        {
          "indexed": true,
          "internalType": "address",
          "name": "operator",
          "type": "address"
        },
        {
          "indexed": true,
          "internalType": "address",
          "name": "from",
          "type": "address"
        },
        {
          "indexed": true,
          "internalType": "address",
          "name": "to",
          "type": "address"
        },
        {
          "indexed": false,
          "internalType": "uint256",
          "name": "id",
          "type": "uint256"
        },
        {
          "indexed": false,
          "internalType": "uint256",
          "name": "value",
          "type": "uint256"
        }
      ],
      "name": "TransferSingle",
      "type": "event"
    },
    {
      "anonymous": false,
      "inputs": [
        {
          "indexed": false,
          "internalType": "string",
          "name": "value",
          "type": "string"
        },
        {
          "indexed": true,
          "internalType": "uint256",
          "name": "id",
          "type": "uint256"
        }
      ],
      "name": "URI",
      "type": "event"
    },
    {
      "anonymous": false,
      "inputs": [
        {
          "indexed": false,
          "internalType": "address",
          "name": "account",
          "type": "address"
        }
      ],
      "name": "Unpaused",
      "type": "event"
    },
    {
      "inputs": [
        {
          "internalType": "address",
          "name": "account",
          "type": "address"
        },
        {
          "internalType": "uint256",
          "name": "id",
          "type": "uint256"
        }
      ],
      "name": "balanceOf",
      "outputs": [
        {
          "internalType": "uint256",
          "name": "",
          "type": "uint256"
        }
      ],
      "stateMutability": "view",
      "type": "function"
    },
    {
      "inputs": [
        {
          "internalType": "address[]",
          "name": "accounts",
          "type": "address[]"
        },
        {
          "internalType": "uint256[]",
          "name": "ids",
          "type": "uint256[]"
        }
      ],
      "name": "balanceOfBatch",
      "outputs": [
        {
          "internalType": "uint256[]",
          "name": "",
          "type": "uint256[]"
        }
      ],
      "stateMutability": "view",
      "type": "function"
    },
    {
      "inputs": [
        {
          "internalType": "address",
          "name": "token",
          "type": "address"
        },
        {
          "internalType": "uint256",
          "name": "amount",
          "type": "uint256"
        }
      ],
      "name": "dequantize",
      "outputs": [],
      "stateMutability": "nonpayable",
      "type": "function"
    },
    {
      "inputs": [],
      "name": "feeToken",
      "outputs": [
        {
          "internalType": "address",
          "name": "",
          "type": "address"
        }
      ],
      "stateMutability": "view",
      "type": "function"
    },
    {
      "inputs": [],
      "name": "governanceToken",
      "outputs": [
        {
          "internalType": "address",
          "name": "",
          "type": "address"
        }
      ],
      "stateMutability": "view",
      "type": "function"
    },
    {
      "inputs": [
        {
          "internalType": "address",
          "name": "account",
          "type": "address"
        },
        {
          "internalType": "address",
          "name": "operator",
          "type": "address"
        }
      ],
      "name": "isApprovedForAll",
      "outputs": [
        {
          "internalType": "bool",
          "name": "",
          "type": "bool"
        }
      ],
      "stateMutability": "view",
      "type": "function"
    },
    {
      "inputs": [
        {
          "internalType": "address",
          "name": "",
          "type": "address"
        },
        {
          "internalType": "address",
          "name": "",
          "type": "address"
        },
        {
          "internalType": "uint256[]",
          "name": "",
          "type": "uint256[]"
        },
        {
          "internalType": "uint256[]",
          "name": "",
          "type": "uint256[]"
        },
        {
          "internalType": "bytes",
          "name": "",
          "type": "bytes"
        }
      ],
      "name": "onERC1155BatchReceived",
      "outputs": [
        {
          "internalType": "bytes4",
          "name": "",
          "type": "bytes4"
        }
      ],
      "stateMutability": "nonpayable",
      "type": "function"
    },
    {
      "inputs": [
        {
          "internalType": "address",
          "name": "",
          "type": "address"
        },
        {
          "internalType": "address",
          "name": "",
          "type": "address"
        },
        {
          "internalType": "uint256",
          "name": "",
          "type": "uint256"
        },
        {
          "internalType": "uint256",
          "name": "",
          "type": "uint256"
        },
        {
          "internalType": "bytes",
          "name": "",
          "type": "bytes"
        }
      ],
      "name": "onERC1155Received",
      "outputs": [
        {
          "internalType": "bytes4",
          "name": "",
          "type": "bytes4"
        }
      ],
      "stateMutability": "nonpayable",
      "type": "function"
    },
    {
      "inputs": [],
      "name": "owner",
      "outputs": [
        {
          "internalType": "address",
          "name": "",
          "type": "address"
        }
      ],
      "stateMutability": "view",
      "type": "function"
    },
    {
      "inputs": [],
      "name": "paused",
      "outputs": [
        {
          "internalType": "bool",
          "name": "",
          "type": "bool"
        }
      ],
      "stateMutability": "view",
      "type": "function"
    },
    {
      "inputs": [
        {
          "internalType": "address",
          "name": "token",
          "type": "address"
        },
        {
          "internalType": "uint256",
          "name": "amount",
          "type": "uint256"
        }
      ],
      "name": "quantize",
      "outputs": [],
      "stateMutability": "nonpayable",
      "type": "function"
    },
    {
      "inputs": [],
      "name": "renounceOwnership",
      "outputs": [],
      "stateMutability": "nonpayable",
      "type": "function"
    },
    {
      "inputs": [
        {
          "internalType": "address",
          "name": "from",
          "type": "address"
        },
        {
          "internalType": "address",
          "name": "to",
          "type": "address"
        },
        {
          "internalType": "uint256[]",
          "name": "ids",
          "type": "uint256[]"
        },
        {
          "internalType": "uint256[]",
          "name": "amounts",
          "type": "uint256[]"
        },
        {
          "internalType": "bytes",
          "name": "data",
          "type": "bytes"
        }
      ],
      "name": "safeBatchTransferFrom",
      "outputs": [],
      "stateMutability": "nonpayable",
      "type": "function"
    },
    {
      "inputs": [
        {
          "internalType": "address",
          "name": "from",
          "type": "address"
        },
        {
          "internalType": "address",
          "name": "to",
          "type": "address"
        },
        {
          "internalType": "uint256",
          "name": "id",
          "type": "uint256"
        },
        {
          "internalType": "uint256",
          "name": "amount",
          "type": "uint256"
        },
        {
          "internalType": "bytes",
          "name": "data",
          "type": "bytes"
        }
      ],
      "name": "safeTransferFrom",
      "outputs": [],
      "stateMutability": "nonpayable",
      "type": "function"
    },
    {
      "inputs": [
        {
          "internalType": "address",
          "name": "operator",
          "type": "address"
        },
        {
          "internalType": "bool",
          "name": "approved",
          "type": "bool"
        }
      ],
      "name": "setApprovalForAll",
      "outputs": [],
      "stateMutability": "nonpayable",
      "type": "function"
    },
    {
      "inputs": [
        {
          "internalType": "address",
          "name": "_addr",
          "type": "address"
        }
      ],
      "name": "setFeeToken",
      "outputs": [],
      "stateMutability": "nonpayable",
      "type": "function"
    },
    {
      "inputs": [
        {
          "internalType": "address",
          "name": "_addr",
          "type": "address"
        }
      ],
      "name": "setGovernanceToken",
      "outputs": [],
      "stateMutability": "nonpayable",
      "type": "function"
    },
    {
      "inputs": [
        {
          "internalType": "bytes4",
          "name": "interfaceId",
          "type": "bytes4"
        }
      ],
      "name": "supportsInterface",
      "outputs": [
        {
          "internalType": "bool",
          "name": "",
          "type": "bool"
        }
      ],
      "stateMutability": "view",
      "type": "function"
    },
    {
      "inputs": [
        {
          "internalType": "address",
          "name": "_addr",
          "type": "address"
        }
      ],
      "name": "totalBalanceOf",
      "outputs": [
        {
          "internalType": "uint256",
          "name": "",
          "type": "uint256"
        }
      ],
      "stateMutability": "view",
      "type": "function"
    },
    {
      "inputs": [
        {
          "internalType": "address",
          "name": "_addr",
          "type": "address"
        }
      ],
      "name": "totalSupply",
      "outputs": [
        {
          "internalType": "uint256",
          "name": "",
          "type": "uint256"
        }
      ],
      "stateMutability": "view",
      "type": "function"
    },
    {
      "inputs": [
        {
          "internalType": "address",
          "name": "newOwner",
          "type": "address"
        }
      ],
      "name": "transferOwnership",
      "outputs": [],
      "stateMutability": "nonpayable",
      "type": "function"
    },
    {
      "inputs": [
        {
          "internalType": "uint256",
          "name": "_id",
          "type": "uint256"
        }
      ],
      "name": "uri",
      "outputs": [
        {
          "internalType": "string",
          "name": "",
          "type": "string"
        }
      ],
      "stateMutability": "view",
      "type": "function"
    }
  ],
  "transactionHash": "0x28272c73430373927bbcf1d1b3a0bc4a7775f0ee0571d6dbcb1a29e989b2a16b",
  "args": [],
  "solcInputHash": "db8d17010fb9e4712ce3f79dfc724f0d",
  "bytecode": "0x60806040523480156200001157600080fd5b506040518060600160405280602c815260200162002ee8602c91396200003e6301ffc9a760e01b620000ff565b620000498162000184565b6200005b636cdb3d1360e11b620000ff565b6200006d6303a24d0760e21b620000ff565b5062000080630271189760e51b620000ff565b6004805460ff191690556000620000966200019d565b60048054610100600160a81b0319166101006001600160a01b03841690810291909117909155604051919250906000907f8be0079c531659141344cd1fd0a4f28419497f9722a3daafe3b4186f6b6457e0908290a350620000f9306001620001a1565b62000334565b6001600160e01b031980821614156200015f576040805162461bcd60e51b815260206004820152601c60248201527f4552433136353a20696e76616c696420696e7465726661636520696400000000604482015290519081900360640190fd5b6001600160e01b0319166000908152602081905260409020805460ff19166001179055565b80516200019990600390602084019062000298565b5050565b3390565b6001600160a01b038216620001b56200019d565b6001600160a01b03161415620001fd5760405162461bcd60e51b815260040180806020018281038252602981526020018062002f146029913960400191505060405180910390fd5b80600260006200020c6200019d565b6001600160a01b03908116825260208083019390935260409182016000908120918716808252919093529120805460ff191692151592909217909155620002526200019d565b6001600160a01b03167f17307eab39ab6107e8899845ad3d59bd9653f200f220920489ca2b5937696c318360405180821515815260200191505060405180910390a35050565b828054600181600116156101000203166002900490600052602060002090601f016020900481019282601f10620002db57805160ff19168380011785556200030b565b828001600101855582156200030b579182015b828111156200030b578251825591602001919060010190620002ee565b50620003199291506200031d565b5090565b5b808211156200031957600081556001016200031e565b612ba480620003446000396000f3fe608060405234801561001057600080fd5b50600436106101115760003560e01c8062fdd58e1461011657806301ffc9a7146101545780630e89341c1461018f57806315cce224146102215780632eb2c2d6146102495780634b0ee02a1461040a5780634e1273f4146104305780635c975abb146105a357806363e24e2f146105ab578063647846a5146105d7578063715018a6146105fb5780638da5cb5b14610603578063a22cb4651461060b578063bc197c8114610639578063d2dfd75914610817578063e4dc2aa414610843578063e985e9c514610869578063f23a6e6114610897578063f242432a14610960578063f2fde38b14610a29578063f857017014610a4f578063f96dae0a14610a75575b600080fd5b6101426004803603604081101561012c57600080fd5b506001600160a01b038135169060200135610a7d565b60408051918252519081900360200190f35b61017b6004803603602081101561016a57600080fd5b50356001600160e01b031916610aef565b604080519115158252519081900360200190f35b6101ac600480360360208110156101a557600080fd5b5035610b12565b6040805160208082528351818301528351919283929083019185019080838360005b838110156101e65781810151838201526020016101ce565b50505050905090810190601f1680156102135780820380516001836020036101000a031916815260200191505b509250505060405180910390f35b6102476004803603602081101561023757600080fd5b50356001600160a01b0316610c98565b005b610247600480360360a081101561025f57600080fd5b6001600160a01b038235811692602081013590911691810190606081016040820135600160201b81111561029257600080fd5b8201836020820111156102a457600080fd5b803590602001918460208302840111600160201b831117156102c557600080fd5b9190808060200260200160405190810160405280939291908181526020018383602002808284376000920191909152509295949360208101935035915050600160201b81111561031457600080fd5b82018360208201111561032657600080fd5b803590602001918460208302840111600160201b8311171561034757600080fd5b9190808060200260200160405190810160405280939291908181526020018383602002808284376000920191909152509295949360208101935035915050600160201b81111561039657600080fd5b8201836020820111156103a857600080fd5b803590602001918460018302840111600160201b831117156103c957600080fd5b91908080601f016020809104026020016040519081016040528093929190818152602001838380828437600092019190915250929550610d18945050505050565b6101426004803603602081101561042057600080fd5b50356001600160a01b0316611016565b6105536004803603604081101561044657600080fd5b810190602081018135600160201b81111561046057600080fd5b82018360208201111561047257600080fd5b803590602001918460208302840111600160201b8311171561049357600080fd5b9190808060200260200160405190810160405280939291908181526020018383602002808284376000920191909152509295949360208101935035915050600160201b8111156104e257600080fd5b8201836020820111156104f457600080fd5b803590602001918460208302840111600160201b8311171561051557600080fd5b919080806020026020016040519081016040528093929190818152602001838360200280828437600092019190915250929550611097945050505050565b60408051602080825283518183015283519192839290830191858101910280838360005b8381101561058f578181015183820152602001610577565b505050509050019250505060405180910390f35b61017b611182565b610247600480360360408110156105c157600080fd5b506001600160a01b03813516906020013561118c565b6105df611402565b604080516001600160a01b039092168252519081900360200190f35b610247611411565b6105df6114b1565b6102476004803603604081101561062157600080fd5b506001600160a01b03813516906020013515156114c5565b6107fa600480360360a081101561064f57600080fd5b6001600160a01b038235811692602081013590911691810190606081016040820135600160201b81111561068257600080fd5b82018360208201111561069457600080fd5b803590602001918460208302840111600160201b831117156106b557600080fd5b9190808060200260200160405190810160405280939291908181526020018383602002808284376000920191909152509295949360208101935035915050600160201b81111561070457600080fd5b82018360208201111561071657600080fd5b803590602001918460208302840111600160201b8311171561073757600080fd5b9190808060200260200160405190810160405280939291908181526020018383602002808284376000920191909152509295949360208101935035915050600160201b81111561078657600080fd5b82018360208201111561079857600080fd5b803590602001918460018302840111600160201b831117156107b957600080fd5b91908080601f0160208091040260200160405190810160405280939291908181526020018383808284376000920191909152509295506115b4945050505050565b604080516001600160e01b03199092168252519081900360200190f35b6102476004803603604081101561082d57600080fd5b506001600160a01b0381351690602001356115c5565b6101426004803603602081101561085957600080fd5b50356001600160a01b0316611825565b61017b6004803603604081101561087f57600080fd5b506001600160a01b0381358116916020013516611840565b6107fa600480360360a08110156108ad57600080fd5b6001600160a01b03823581169260208101359091169160408201359160608101359181019060a081016080820135600160201b8111156108ec57600080fd5b8201836020820111156108fe57600080fd5b803590602001918460018302840111600160201b8311171561091f57600080fd5b91908080601f01602080910402602001604051908101604052809392919081815260200183838082843760009201919091525092955061186e945050505050565b610247600480360360a081101561097657600080fd5b6001600160a01b03823581169260208101359091169160408201359160608101359181019060a081016080820135600160201b8111156109b557600080fd5b8201836020820111156109c757600080fd5b803590602001918460018302840111600160201b831117156109e857600080fd5b91908080601f01602080910402602001604051908101604052809392919081815260200183838082843760009201919091525092955061187f945050505050565b61024760048036036020811015610a3f57600080fd5b50356001600160a01b0316611a38565b61024760048036036020811015610a6557600080fd5b50356001600160a01b0316611b34565b6105df611b9e565b60006001600160a01b038316610ac45760405162461bcd60e51b815260040180806020018281038252602b8152602001806128e7602b913960400191505060405180910390fd5b5060008181526001602090815260408083206001600160a01b03861684529091529020545b92915050565b6001600160e01b0319811660009081526020819052604090205460ff165b919050565b6060610b1d82611825565b610b585760405162461bcd60e51b81526004018080602001828103825260258152602001806129816025913960400191505060405180910390fd5b610ae9306001600160a01b0316630e89341c846040518263ffffffff1660e01b81526004018082815260200191505060006040518083038186803b158015610b9f57600080fd5b505afa158015610bb3573d6000803e3d6000fd5b505050506040513d6000823e601f3d908101601f191682016040526020811015610bdc57600080fd5b8101908080516040519392919084600160201b821115610bfb57600080fd5b908301906020820185811115610c1057600080fd5b8251600160201b811182820188101715610c2957600080fd5b82525081516020918201929091019080838360005b83811015610c56578181015183820152602001610c3e565b50505050905090810190601f168015610c835780820380516001836020036101000a031916815260200191505b50604052505050610c9384611bad565b611c84565b6007546001600160a01b031615610cf6576040805162461bcd60e51b815260206004820152601e60248201527f46656520746f6b656e2073657474696e6720697320696d6d757461626c650000604482015290519081900360640190fd5b600780546001600160a01b0319166001600160a01b0392909216919091179055565b8151835114610d585760405162461bcd60e51b8152600401808060200182810382526028815260200180612b266028913960400191505060405180910390fd5b6001600160a01b038416610d9d5760405162461bcd60e51b81526004018080602001828103825260258152602001806129cf6025913960400191505060405180910390fd5b610da5611cc7565b6001600160a01b0316856001600160a01b03161480610dd05750610dd085610dcb611cc7565b611840565b610e0b5760405162461bcd60e51b81526004018080602001828103825260328152602001806129f46032913960400191505060405180910390fd5b6000610e15611cc7565b9050610e25818787878787611ccb565b60005b8451811015610f26576000858281518110610e3f57fe5b602002602001015190506000858381518110610e5757fe5b60200260200101519050610ec4816040518060600160405280602a8152602001612a49602a91396001600086815260200190815260200160002060008d6001600160a01b03166001600160a01b0316815260200190815260200160002054611daf9092919063ffffffff16565b60008381526001602090815260408083206001600160a01b038e811685529252808320939093558a1681522054610efb9082611e46565b60009283526001602081815260408086206001600160a01b038d168752909152909320555001610e28565b50846001600160a01b0316866001600160a01b0316826001600160a01b03167f4a39dc06d4c0dbc64b70af90fd698a233a518aa5d07e595d983b8c0526c8f7fb8787604051808060200180602001838103835285818151815260200191508051906020019060200280838360005b83811015610fac578181015183820152602001610f94565b50505050905001838103825284818151815260200191508051906020019060200280838360005b83811015610feb578181015183820152602001610fd3565b5050505090500194505050505060405180910390a461100e818787878787611e9e565b505050505050565b6000816001600160a01b03166370a08231306040518263ffffffff1660e01b815260040180826001600160a01b0316815260200191505060206040518083038186803b15801561106557600080fd5b505afa158015611079573d6000803e3d6000fd5b505050506040513d602081101561108f57600080fd5b505192915050565b606081518351146110d95760405162461bcd60e51b8152600401808060200182810382526029815260200180612afd6029913960400191505060405180910390fd5b606083516001600160401b03811180156110f257600080fd5b5060405190808252806020026020018201604052801561111c578160200160208202803683370190505b50905060005b845181101561117a5761115b85828151811061113a57fe5b602002602001015185838151811061114e57fe5b6020026020010151610a7d565b82828151811061116757fe5b6020908102919091010152600101611122565b509392505050565b60045460ff165b90565b6000826001600160a01b031663313ce5676040518163ffffffff1660e01b815260040160206040518083038186803b1580156111c757600080fd5b505afa1580156111db573d6000803e3d6000fd5b505050506040513d60208110156111f157600080fd5b505160ff16600a0a90506112058282612114565b836001600160a01b03166370a0823161121c611cc7565b6040518263ffffffff1660e01b815260040180826001600160a01b0316815260200191505060206040518083038186803b15801561125957600080fd5b505afa15801561126d573d6000803e3d6000fd5b505050506040513d602081101561128357600080fd5b505110156112cf576040805162461bcd60e51b8152602060048201526014602482015273496e73756666696369656e742062616c616e636560601b604482015290519081900360640190fd5b826001600160a01b03166323b872dd6112e6611cc7565b306112f18686612114565b6040518463ffffffff1660e01b815260040180846001600160a01b03168152602001836001600160a01b031681526020018281526020019350505050602060405180830381600087803b15801561134757600080fd5b505af115801561135b573d6000803e3d6000fd5b505050506040513d602081101561137157600080fd5b506113ab905061137f611cc7565b846001600160a01b0316846040518060400160405280600381526020016203078360ec1b81525061216d565b826001600160a01b03166113bd611cc7565b6001600160a01b03167f8595d1d01c4b72d60f4d66dbf69746032eba38c13d5e4c19f948d1e24cbca98c846040518082815260200191505060405180910390a3505050565b6007546001600160a01b031690565b611419611cc7565b6001600160a01b031661142a6114b1565b6001600160a01b031614611473576040805162461bcd60e51b81526020600482018190526024820152600080516020612a94833981519152604482015290519081900360640190fd5b60045460405160009161010090046001600160a01b031690600080516020612ab4833981519152908390a360048054610100600160a81b0319169055565b60045461010090046001600160a01b031690565b816001600160a01b03166114d7611cc7565b6001600160a01b0316141561151d5760405162461bcd60e51b8152600401808060200182810382526029815260200180612ad46029913960400191505060405180910390fd5b806002600061152a611cc7565b6001600160a01b03908116825260208083019390935260409182016000908120918716808252919093529120805460ff19169215159290921790915561156e611cc7565b6001600160a01b03167f17307eab39ab6107e8899845ad3d59bd9653f200f220920489ca2b5937696c318360405180821515815260200191505060405180910390a35050565b63bc197c8160e01b95945050505050565b6000826001600160a01b031663313ce5676040518163ffffffff1660e01b815260040160206040518083038186803b15801561160057600080fd5b505afa158015611614573d6000803e3d6000fd5b505050506040513d602081101561162a57600080fd5b505160ff16600a0a9050816001600160a01b03841662fdd58e61164b611cc7565b866001600160a01b03166040518363ffffffff1660e01b815260040180836001600160a01b031681526020018281526020019250505060206040518083038186803b15801561169957600080fd5b505afa1580156116ad573d6000803e3d6000fd5b505050506040513d60208110156116c357600080fd5b5051101561170f576040805162461bcd60e51b8152602060048201526014602482015273496e73756666696369656e742062616c616e636560601b604482015290519081900360640190fd5b61172a61171a611cc7565b846001600160a01b031684612263565b826001600160a01b03166323b872dd30611742611cc7565b61174c8686612114565b6040518463ffffffff1660e01b815260040180846001600160a01b03168152602001836001600160a01b031681526020018281526020019350505050602060405180830381600087803b1580156117a257600080fd5b505af11580156117b6573d6000803e3d6000fd5b505050506040513d60208110156117cc57600080fd5b50506001600160a01b0383166117e0611cc7565b6001600160a01b03167faecf0e6fc39f8f64ab8c77a46ea33bc3b0da3df6d44bd3a078a98a0ed066b372846040518082815260200191505060405180910390a3505050565b6001600160a01b031660009081526005602052604090205490565b6001600160a01b03918216600090815260026020908152604080832093909416825291909152205460ff1690565b63f23a6e6160e01b95945050505050565b6001600160a01b0384166118c45760405162461bcd60e51b81526004018080602001828103825260258152602001806129cf6025913960400191505060405180910390fd5b6118cc611cc7565b6001600160a01b0316856001600160a01b031614806118f257506118f285610dcb611cc7565b61192d5760405162461bcd60e51b81526004018080602001828103825260298152602001806129a66029913960400191505060405180910390fd5b6000611937611cc7565b905061195781878761194888612384565b61195188612384565b87611ccb565b61199e836040518060600160405280602a8152602001612a49602a913960008781526001602090815260408083206001600160a01b038d1684529091529020549190611daf565b60008581526001602090815260408083206001600160a01b038b811685529252808320939093558716815220546119d59084611e46565b60008581526001602090815260408083206001600160a01b03808b168086529184529382902094909455805188815291820187905280518a8416938616926000805160206128c783398151915292908290030190a461100e8187878787876123c8565b611a40611cc7565b6001600160a01b0316611a516114b1565b6001600160a01b031614611a9a576040805162461bcd60e51b81526020600482018190526024820152600080516020612a94833981519152604482015290519081900360640190fd5b6001600160a01b038116611adf5760405162461bcd60e51b81526004018080602001828103825260268152602001806129126026913960400191505060405180910390fd5b6004546040516001600160a01b038084169261010090041690600080516020612ab483398151915290600090a3600480546001600160a01b0390921661010002610100600160a81b0319909216919091179055565b6006546001600160a01b031615611b7c5760405162461bcd60e51b81526004018080602001828103825260258152602001806129386025913960400191505060405180910390fd5b600680546001600160a01b0319166001600160a01b0392909216919091179055565b6006546001600160a01b031690565b606081611bd257506040805180820190915260018152600360fc1b6020820152610b0d565b8160005b8115611bea57600101600a82049150611bd6565b6060816001600160401b0381118015611c0257600080fd5b506040519080825280601f01601f191660200182016040528015611c2d576020820181803683370190505b50905060001982015b8515611c7b57600a860660300160f81b82828060019003935081518110611c5957fe5b60200101906001600160f81b031916908160001a905350600a86049550611c36565b50949350505050565b6060611cc08383604051806020016040528060008152506040518060200160405280600081525060405180602001604052806000815250612539565b9392505050565b3390565b60005b8351811015611da6576000848281518110611ce557fe5b602002602001015190506000848381518110611cfd57fe5b6020026020010151905060006001600160a01b0316886001600160a01b03161415611d4f57600082815260056020526040902054611d3b9082611e46565b600083815260056020526040902055611d9c565b6001600160a01b038716611d9c57600082815260056020526040902054811015611d9c57600082815260056020526040902054611d8c908261275d565b6000838152600560205260409020555b5050600101611cce565b50505050505050565b60008184841115611e3e5760405162461bcd60e51b81526004018080602001828103825283818151815260200191508051906020019080838360005b83811015611e03578181015183820152602001611deb565b50505050905090810190601f168015611e305780820380516001836020036101000a031916815260200191505b509250505060405180910390fd5b505050900390565b600082820183811015611cc0576040805162461bcd60e51b815260206004820152601b60248201527a536166654d6174683a206164646974696f6e206f766572666c6f7760281b604482015290519081900360640190fd5b611eb0846001600160a01b03166127ba565b1561100e57836001600160a01b031663bc197c8187878686866040518663ffffffff1660e01b815260040180866001600160a01b03168152602001856001600160a01b03168152602001806020018060200180602001848103845287818151815260200191508051906020019060200280838360005b83811015611f3e578181015183820152602001611f26565b50505050905001848103835286818151815260200191508051906020019060200280838360005b83811015611f7d578181015183820152602001611f65565b50505050905001848103825285818151815260200191508051906020019080838360005b83811015611fb9578181015183820152602001611fa1565b50505050905090810190601f168015611fe65780820380516001836020036101000a031916815260200191505b5098505050505050505050602060405180830381600087803b15801561200b57600080fd5b505af192505050801561203057506040513d602081101561202b57600080fd5b505160015b6120c55761203c6127c6565b80612047575061208e565b60405162461bcd60e51b8152602060048201818152835160248401528351849391928392604401919085019080838360008315611e03578181015183820152602001611deb565b60405162461bcd60e51b815260040180806020018281038252603481526020018061286b6034913960400191505060405180910390fd5b6001600160e01b0319811663bc197c8160e01b14611da65760405162461bcd60e51b815260040180806020018281038252602881526020018061289f6028913960400191505060405180910390fd5b60008261212357506000610ae9565b8282028284828161213057fe5b0414611cc05760405162461bcd60e51b8152600401808060200182810382526021815260200180612a736021913960400191505060405180910390fd5b6001600160a01b0384166121b25760405162461bcd60e51b8152600401808060200182810382526021815260200180612b4e6021913960400191505060405180910390fd5b60006121bc611cc7565b90506121ce8160008761194888612384565b60008481526001602090815260408083206001600160a01b03891684529091529020546121fb9084611e46565b60008581526001602090815260408083206001600160a01b03808b16808652918452828520959095558151898152928301889052815190948616926000805160206128c783398151915292908290030190a461225c816000878787876123c8565b5050505050565b6001600160a01b0383166122a85760405162461bcd60e51b8152600401808060200182810382526023815260200180612a266023913960400191505060405180910390fd5b60006122b2611cc7565b90506122e2818560006122c487612384565b6122cd87612384565b60405180602001604052806000815250611ccb565b6123298260405180606001604052806024815260200161295d6024913960008681526001602090815260408083206001600160a01b038b1684529091529020549190611daf565b60008481526001602090815260408083206001600160a01b03808a16808652918452828520959095558151888152928301879052815193949093908616926000805160206128c783398151915292908290030190a450505050565b6040805160018082528183019092526060918291906020808301908036833701905050905082816000815181106123b757fe5b602090810291909101015292915050565b6123da846001600160a01b03166127ba565b1561100e57836001600160a01b031663f23a6e6187878686866040518663ffffffff1660e01b815260040180866001600160a01b03168152602001856001600160a01b0316815260200184815260200183815260200180602001828103825283818151815260200191508051906020019080838360005b83811015612469578181015183820152602001612451565b50505050905090810190601f1680156124965780820380516001836020036101000a031916815260200191505b509650505050505050602060405180830381600087803b1580156124b957600080fd5b505af19250505080156124de57506040513d60208110156124d957600080fd5b505160015b6124ea5761203c6127c6565b6001600160e01b0319811663f23a6e6160e01b14611da65760405162461bcd60e51b815260040180806020018281038252602881526020018061289f6028913960400191505060405180910390fd5b805182518451865188516060948a948a948a948a948a948a9491909201909201909101016001600160401b038111801561257257600080fd5b506040519080825280601f01601f19166020018201604052801561259d576020820181803683370190505b509050806000805b88518110156125f6578881815181106125ba57fe5b602001015160f81c60f81b8383806001019450815181106125d757fe5b60200101906001600160f81b031916908160001a9053506001016125a5565b5060005b875181101561264b5787818151811061260f57fe5b602001015160f81c60f81b83838060010194508151811061262c57fe5b60200101906001600160f81b031916908160001a9053506001016125fa565b5060005b86518110156126a05786818151811061266457fe5b602001015160f81c60f81b83838060010194508151811061268157fe5b60200101906001600160f81b031916908160001a90535060010161264f565b5060005b85518110156126f5578581815181106126b957fe5b602001015160f81c60f81b8383806001019450815181106126d657fe5b60200101906001600160f81b031916908160001a9053506001016126a4565b5060005b845181101561274a5784818151811061270e57fe5b602001015160f81c60f81b83838060010194508151811061272b57fe5b60200101906001600160f81b031916908160001a9053506001016126f9565b50909d9c50505050505050505050505050565b6000828211156127b4576040805162461bcd60e51b815260206004820152601e60248201527f536166654d6174683a207375627472616374696f6e206f766572666c6f770000604482015290519081900360640190fd5b50900390565b3b151590565b60e01c90565b600060443d10156127d657611189565b600481823e6308c379a06127ea82516127c0565b146127f457611189565b6040513d600319016004823e80513d6001600160401b0380831160248401831017156128235750505050611189565b8284019250825191508082111561283d5750505050611189565b503d8301602082840101111561285557505050611189565b601f01601f191681016020016040529150509056fe455243313135353a207472616e7366657220746f206e6f6e2045524331313535526563656976657220696d706c656d656e746572455243313135353a204552433131353552656365697665722072656a656374656420746f6b656e73c3d58168c5ae7397731d063d5bbf3d657854427343f4c083240f7aacaa2d0f62455243313135353a2062616c616e636520717565727920666f7220746865207a65726f20616464726573734f776e61626c653a206e6577206f776e657220697320746865207a65726f2061646472657373476f7665726e616e636520746f6b656e2073657474696e6720697320696d6d757461626c65455243313135353a206275726e20616d6f756e7420657863656564732062616c616e63655175616e74697a65644552433230237572693a204e4f4e4558495354454e545f544f4b454e455243313135353a2063616c6c6572206973206e6f74206f776e6572206e6f7220617070726f766564455243313135353a207472616e7366657220746f20746865207a65726f2061646472657373455243313135353a207472616e736665722063616c6c6572206973206e6f74206f776e6572206e6f7220617070726f766564455243313135353a206275726e2066726f6d20746865207a65726f2061646472657373455243313135353a20696e73756666696369656e742062616c616e636520666f72207472616e73666572536166654d6174683a206d756c7469706c69636174696f6e206f766572666c6f774f776e61626c653a2063616c6c6572206973206e6f7420746865206f776e65728be0079c531659141344cd1fd0a4f28419497f9722a3daafe3b4186f6b6457e0455243313135353a2073657474696e6720617070726f76616c2073746174757320666f722073656c66455243313135353a206163636f756e747320616e6420696473206c656e677468206d69736d61746368455243313135353a2069647320616e6420616d6f756e7473206c656e677468206d69736d61746368455243313135353a206d696e7420746f20746865207a65726f2061646472657373a2646970667358221220380fc997eaaa6f1f18d489f21b1b96d9dcccb7eb27095fc1ab15088f68b4fc5064736f6c6343000703003368747470733a2f2f6d657461646174612e7175616e74697a65722e66696e616e63652f6d657461646174612f455243313135353a2073657474696e6720617070726f76616c2073746174757320666f722073656c66",
  "libraries": {
    "Strings": "0x815b281DD14AAf4Cf8d38dD461fC31d7C496DbF9"
  },
  "devdoc": {
    "events": {
      "Dequantized(address,address,uint256)": {
        "details": "Emitted when an erc20 token is fungized (erc1155 burned and erc20 tokens returned)"
      },
      "Quantized(address,address,uint256)": {
        "details": "Emitted when an erc20 token is quantized (erc20 tokens tranferred to contract, erc1155 minted and transferred to quantizer)"
      }
    },
    "kind": "dev",
    "methods": {
      "balanceOf(address,uint256)": {
        "details": "See {IERC1155-balanceOf}. Requirements: - `account` cannot be the zero address."
      },
      "balanceOfBatch(address[],uint256[])": {
        "details": "See {IERC1155-balanceOfBatch}. Requirements: - `accounts` and `ids` must have the same length."
      },
      "constructor": {
        "details": "Contract initializer."
      },
      "dequantize(address,uint256)": {
        "details": "Fungize this token to erc20."
      },
      "feeToken()": {
        "details": "Get the total supply for this quantized erc20"
      },
      "governanceToken()": {
        "details": "Get the total supply for this quantized erc20"
      },
      "isApprovedForAll(address,address)": {
        "details": "See {IERC1155-isApprovedForAll}."
      },
      "owner()": {
        "details": "Returns the address of the current owner."
      },
      "paused()": {
        "details": "Returns true if the contract is paused, and false otherwise."
      },
      "quantize(address,uint256)": {
        "details": "Quantize this token to erc1155."
      },
      "renounceOwnership()": {
        "details": "Leaves the contract without owner. It will not be possible to call `onlyOwner` functions anymore. Can only be called by the current owner. NOTE: Renouncing ownership will leave the contract without an owner, thereby removing any functionality that is only available to the owner."
      },
      "safeBatchTransferFrom(address,address,uint256[],uint256[],bytes)": {
        "details": "See {IERC1155-safeBatchTransferFrom}."
      },
      "safeTransferFrom(address,address,uint256,uint256,bytes)": {
        "details": "See {IERC1155-safeTransferFrom}."
      },
      "setApprovalForAll(address,bool)": {
        "details": "See {IERC1155-setApprovalForAll}."
      },
      "setFeeToken(address)": {
        "details": "Get the total supply for this quantized erc20"
      },
      "setGovernanceToken(address)": {
        "details": "Get the total supply for this quantized erc20"
      },
      "supportsInterface(bytes4)": {
        "details": "See {IERC165-supportsInterface}. Time complexity O(1), guaranteed to always use less than 30 000 gas."
      },
      "totalBalanceOf(address)": {
        "details": "Get the total balance of held for this erc20"
      },
      "totalSupply(address)": {
        "details": "Get the total existing supply of quantized tokens for this erc20"
      },
      "transferOwnership(address)": {
        "details": "Transfers ownership of the contract to a new account (`newOwner`). Can only be called by the current owner."
      },
      "uri(uint256)": {
        "details": "Returns the metadata URI for this token type"
      }
    },
    "version": 1
  },
  "userdoc": {
    "kind": "user",
    "methods": {},
    "version": 1
  },
  "storageLayout": {
    "storage": [
      {
        "astId": 123,
        "contract": "src/Quantized.sol:Quantized",
        "label": "_supportedInterfaces",
        "offset": 0,
        "slot": "0",
        "type": "t_mapping(t_bytes4,t_bool)"
      },
      {
        "astId": 563,
        "contract": "src/Quantized.sol:Quantized",
        "label": "_balances",
        "offset": 0,
        "slot": "1",
        "type": "t_mapping(t_uint256,t_mapping(t_address,t_uint256))"
      },
      {
        "astId": 569,
        "contract": "src/Quantized.sol:Quantized",
        "label": "_operatorApprovals",
        "offset": 0,
        "slot": "2",
        "type": "t_mapping(t_address,t_mapping(t_address,t_bool))"
      },
      {
        "astId": 571,
        "contract": "src/Quantized.sol:Quantized",
        "label": "_uri",
        "offset": 0,
        "slot": "3",
        "type": "t_string_storage"
      },
      {
        "astId": 2722,
        "contract": "src/Quantized.sol:Quantized",
        "label": "_paused",
        "offset": 0,
        "slot": "4",
        "type": "t_bool"
      },
      {
        "astId": 7,
        "contract": "src/Quantized.sol:Quantized",
        "label": "_owner",
        "offset": 1,
        "slot": "4",
        "type": "t_address"
      },
      {
        "astId": 10957,
        "contract": "src/Quantized.sol:Quantized",
        "label": "totalSupplies",
        "offset": 0,
        "slot": "5",
        "type": "t_mapping(t_uint256,t_uint256)"
      },
      {
        "astId": 11074,
        "contract": "src/Quantized.sol:Quantized",
        "label": "_governanceToken",
        "offset": 0,
        "slot": "6",
        "type": "t_address"
      },
      {
        "astId": 11106,
        "contract": "src/Quantized.sol:Quantized",
        "label": "_feeToken",
        "offset": 0,
        "slot": "7",
        "type": "t_address"
      }
    ],
    "types": {
      "t_address": {
        "encoding": "inplace",
        "label": "address",
        "numberOfBytes": "20"
      },
      "t_bool": {
        "encoding": "inplace",
        "label": "bool",
        "numberOfBytes": "1"
      },
      "t_bytes4": {
        "encoding": "inplace",
        "label": "bytes4",
        "numberOfBytes": "4"
      },
      "t_mapping(t_address,t_bool)": {
        "encoding": "mapping",
        "key": "t_address",
        "label": "mapping(address => bool)",
        "numberOfBytes": "32",
        "value": "t_bool"
      },
      "t_mapping(t_address,t_mapping(t_address,t_bool))": {
        "encoding": "mapping",
        "key": "t_address",
        "label": "mapping(address => mapping(address => bool))",
        "numberOfBytes": "32",
        "value": "t_mapping(t_address,t_bool)"
      },
      "t_mapping(t_address,t_uint256)": {
        "encoding": "mapping",
        "key": "t_address",
        "label": "mapping(address => uint256)",
        "numberOfBytes": "32",
        "value": "t_uint256"
      },
      "t_mapping(t_bytes4,t_bool)": {
        "encoding": "mapping",
        "key": "t_bytes4",
        "label": "mapping(bytes4 => bool)",
        "numberOfBytes": "32",
        "value": "t_bool"
      },
      "t_mapping(t_uint256,t_mapping(t_address,t_uint256))": {
        "encoding": "mapping",
        "key": "t_uint256",
        "label": "mapping(uint256 => mapping(address => uint256))",
        "numberOfBytes": "32",
        "value": "t_mapping(t_address,t_uint256)"
      },
      "t_mapping(t_uint256,t_uint256)": {
        "encoding": "mapping",
        "key": "t_uint256",
        "label": "mapping(uint256 => uint256)",
        "numberOfBytes": "32",
        "value": "t_uint256"
      },
      "t_string_storage": {
        "encoding": "bytes",
        "label": "string",
        "numberOfBytes": "32"
      },
      "t_uint256": {
        "encoding": "inplace",
        "label": "uint256",
        "numberOfBytes": "32"
      }
    }
  }
}